{
  "contractName": "CoreVault",
  "abi": [
    {
      "anonymous": false,
      "inputs": [
        {
          "indexed": true,
          "internalType": "address",
          "name": "owner",
          "type": "address"
        },
        {
          "indexed": true,
          "internalType": "address",
          "name": "spender",
          "type": "address"
        },
        {
          "indexed": false,
          "internalType": "uint256",
          "name": "_pid",
          "type": "uint256"
        },
        {
          "indexed": false,
          "internalType": "uint256",
          "name": "value",
          "type": "uint256"
        }
      ],
      "name": "Approval",
      "type": "event"
    },
    {
      "anonymous": false,
      "inputs": [
        {
          "indexed": true,
          "internalType": "address",
          "name": "user",
          "type": "address"
        },
        {
          "indexed": true,
          "internalType": "uint256",
          "name": "pid",
          "type": "uint256"
        },
        {
          "indexed": false,
          "internalType": "uint256",
          "name": "amount",
          "type": "uint256"
        }
      ],
      "name": "Deposit",
      "type": "event"
    },
    {
      "anonymous": false,
      "inputs": [
        {
          "indexed": true,
          "internalType": "address",
          "name": "user",
          "type": "address"
        },
        {
          "indexed": true,
          "internalType": "uint256",
          "name": "pid",
          "type": "uint256"
        },
        {
          "indexed": false,
          "internalType": "uint256",
          "name": "amount",
          "type": "uint256"
        }
      ],
      "name": "EmergencyWithdraw",
      "type": "event"
    },
    {
      "anonymous": false,
      "inputs": [
        {
          "indexed": true,
          "internalType": "address",
          "name": "previousOwner",
          "type": "address"
        },
        {
          "indexed": true,
          "internalType": "address",
          "name": "newOwner",
          "type": "address"
        }
      ],
      "name": "OwnershipTransferred",
      "type": "event"
    },
    {
      "anonymous": false,
      "inputs": [
        {
          "indexed": true,
          "internalType": "address",
          "name": "previousOwner",
          "type": "address"
        },
        {
          "indexed": true,
          "internalType": "address",
          "name": "newOwner",
          "type": "address"
        }
      ],
      "name": "SuperAdminTransfered",
      "type": "event"
    },
    {
      "anonymous": false,
      "inputs": [
        {
          "indexed": true,
          "internalType": "address",
          "name": "user",
          "type": "address"
        },
        {
          "indexed": true,
          "internalType": "uint256",
          "name": "pid",
          "type": "uint256"
        },
        {
          "indexed": false,
          "internalType": "uint256",
          "name": "amount",
          "type": "uint256"
        }
      ],
      "name": "Withdraw",
      "type": "event"
    },
    {
      "inputs": [],
      "name": "contractStartBlock",
      "outputs": [
        {
          "internalType": "uint256",
          "name": "",
          "type": "uint256"
        }
      ],
      "stateMutability": "view",
      "type": "function"
    },
    {
      "inputs": [],
      "name": "core",
      "outputs": [
        {
          "internalType": "contract INBUNIERC20",
          "name": "",
          "type": "address"
        }
      ],
      "stateMutability": "view",
      "type": "function"
    },
    {
      "inputs": [],
      "name": "cumulativeRewardsSinceStart",
      "outputs": [
        {
          "internalType": "uint256",
          "name": "",
          "type": "uint256"
        }
      ],
      "stateMutability": "view",
      "type": "function"
    },
    {
      "inputs": [],
      "name": "devaddr",
      "outputs": [
        {
          "internalType": "address",
          "name": "",
          "type": "address"
        }
      ],
      "stateMutability": "view",
      "type": "function"
    },
    {
      "inputs": [],
      "name": "epoch",
      "outputs": [
        {
          "internalType": "uint256",
          "name": "",
          "type": "uint256"
        }
      ],
      "stateMutability": "view",
      "type": "function"
    },
    {
      "inputs": [],
      "name": "epochCalculationStartBlock",
      "outputs": [
        {
          "internalType": "uint256",
          "name": "",
          "type": "uint256"
        }
      ],
      "stateMutability": "view",
      "type": "function"
    },
    {
      "inputs": [
        {
          "internalType": "uint256",
          "name": "",
          "type": "uint256"
        }
      ],
      "name": "epochRewards",
      "outputs": [
        {
          "internalType": "uint256",
          "name": "",
          "type": "uint256"
        }
      ],
      "stateMutability": "view",
      "type": "function"
    },
    {
      "inputs": [],
      "name": "owner",
      "outputs": [
        {
          "internalType": "address",
          "name": "",
          "type": "address"
        }
      ],
      "stateMutability": "view",
      "type": "function"
    },
    {
      "inputs": [],
      "name": "pendingRewards",
      "outputs": [
        {
          "internalType": "uint256",
          "name": "",
          "type": "uint256"
        }
      ],
      "stateMutability": "view",
      "type": "function"
    },
    {
      "inputs": [
        {
          "internalType": "uint256",
          "name": "",
          "type": "uint256"
        }
      ],
      "name": "poolInfo",
      "outputs": [
        {
          "internalType": "contract IERC20",
          "name": "token",
          "type": "address"
        },
        {
          "internalType": "uint256",
          "name": "allocPoint",
          "type": "uint256"
        },
        {
          "internalType": "uint256",
          "name": "accCorePerShare",
          "type": "uint256"
        },
        {
          "internalType": "bool",
          "name": "withdrawable",
          "type": "bool"
        }
      ],
      "stateMutability": "view",
      "type": "function"
    },
    {
      "inputs": [],
      "name": "renounceOwnership",
      "outputs": [],
      "stateMutability": "nonpayable",
      "type": "function"
    },
    {
      "inputs": [],
      "name": "rewardsInThisEpoch",
      "outputs": [
        {
          "internalType": "uint256",
          "name": "",
          "type": "uint256"
        }
      ],
      "stateMutability": "view",
      "type": "function"
    },
    {
      "inputs": [],
      "name": "totalAllocPoint",
      "outputs": [
        {
          "internalType": "uint256",
          "name": "",
          "type": "uint256"
        }
      ],
      "stateMutability": "view",
      "type": "function"
    },
    {
      "inputs": [
        {
          "internalType": "address",
          "name": "newOwner",
          "type": "address"
        }
      ],
      "name": "transferOwnership",
      "outputs": [],
      "stateMutability": "nonpayable",
      "type": "function"
    },
    {
      "inputs": [
        {
          "internalType": "uint256",
          "name": "",
          "type": "uint256"
        },
        {
          "internalType": "address",
          "name": "",
          "type": "address"
        }
      ],
      "name": "userInfo",
      "outputs": [
        {
          "internalType": "uint256",
          "name": "amount",
          "type": "uint256"
        },
        {
          "internalType": "uint256",
          "name": "rewardDebt",
          "type": "uint256"
        }
      ],
      "stateMutability": "view",
      "type": "function"
    },
    {
      "inputs": [],
      "name": "averageFeesPerBlockSinceStart",
      "outputs": [
        {
          "internalType": "uint256",
          "name": "averagePerBlock",
          "type": "uint256"
        }
      ],
      "stateMutability": "view",
      "type": "function"
    },
    {
      "inputs": [],
      "name": "averageFeesPerBlockEpoch",
      "outputs": [
        {
          "internalType": "uint256",
          "name": "averagePerBlock",
          "type": "uint256"
        }
      ],
      "stateMutability": "view",
      "type": "function"
    },
    {
      "inputs": [],
      "name": "startNewEpoch",
      "outputs": [],
      "stateMutability": "nonpayable",
      "type": "function"
    },
    {
      "inputs": [
        {
          "internalType": "contract INBUNIERC20",
          "name": "_core",
          "type": "address"
        },
        {
          "internalType": "address",
          "name": "_devaddr",
          "type": "address"
        },
        {
          "internalType": "address",
          "name": "superAdmin",
          "type": "address"
        }
      ],
      "name": "initialize",
      "outputs": [],
      "stateMutability": "nonpayable",
      "type": "function"
    },
    {
      "inputs": [],
      "name": "poolLength",
      "outputs": [
        {
          "internalType": "uint256",
          "name": "",
          "type": "uint256"
        }
      ],
      "stateMutability": "view",
      "type": "function"
    },
    {
      "inputs": [
        {
          "internalType": "uint256",
          "name": "_allocPoint",
          "type": "uint256"
        },
        {
          "internalType": "contract IERC20",
          "name": "_token",
          "type": "address"
        },
        {
          "internalType": "bool",
          "name": "_withUpdate",
          "type": "bool"
        },
        {
          "internalType": "bool",
          "name": "_withdrawable",
          "type": "bool"
        }
      ],
      "name": "add",
      "outputs": [],
      "stateMutability": "nonpayable",
      "type": "function"
    },
    {
      "inputs": [
        {
          "internalType": "uint256",
          "name": "_pid",
          "type": "uint256"
        },
        {
          "internalType": "uint256",
          "name": "_allocPoint",
          "type": "uint256"
        },
        {
          "internalType": "bool",
          "name": "_withUpdate",
          "type": "bool"
        }
      ],
      "name": "set",
      "outputs": [],
      "stateMutability": "nonpayable",
      "type": "function"
    },
    {
      "inputs": [
        {
          "internalType": "uint256",
          "name": "_pid",
          "type": "uint256"
        },
        {
          "internalType": "bool",
          "name": "_withdrawable",
          "type": "bool"
        }
      ],
      "name": "setPoolWithdrawable",
      "outputs": [],
      "stateMutability": "nonpayable",
      "type": "function"
    },
    {
      "inputs": [
        {
          "internalType": "uint16",
          "name": "_DEV_FEE",
          "type": "uint16"
        }
      ],
      "name": "setDevFee",
      "outputs": [],
      "stateMutability": "nonpayable",
      "type": "function"
    },
    {
      "inputs": [
        {
          "internalType": "uint256",
          "name": "_pid",
          "type": "uint256"
        },
        {
          "internalType": "address",
          "name": "_user",
          "type": "address"
        }
      ],
      "name": "pendingCore",
      "outputs": [
        {
          "internalType": "uint256",
          "name": "",
          "type": "uint256"
        }
      ],
      "stateMutability": "view",
      "type": "function"
    },
    {
      "inputs": [],
      "name": "massUpdatePools",
      "outputs": [],
      "stateMutability": "nonpayable",
      "type": "function"
    },
    {
      "inputs": [
        {
          "internalType": "uint256",
          "name": "_",
          "type": "uint256"
        }
      ],
      "name": "addPendingRewards",
      "outputs": [],
      "stateMutability": "nonpayable",
      "type": "function"
    },
    {
      "inputs": [
        {
          "internalType": "uint256",
          "name": "_pid",
          "type": "uint256"
        },
        {
          "internalType": "uint256",
          "name": "_amount",
          "type": "uint256"
        }
      ],
      "name": "deposit",
      "outputs": [],
      "stateMutability": "nonpayable",
      "type": "function"
    },
    {
      "inputs": [
        {
          "internalType": "address",
          "name": "depositFor",
          "type": "address"
        },
        {
          "internalType": "uint256",
          "name": "_pid",
          "type": "uint256"
        },
        {
          "internalType": "uint256",
          "name": "_amount",
          "type": "uint256"
        }
      ],
      "name": "depositFor",
      "outputs": [],
      "stateMutability": "nonpayable",
      "type": "function"
    },
    {
      "inputs": [
        {
          "internalType": "address",
          "name": "spender",
          "type": "address"
        },
        {
          "internalType": "uint256",
          "name": "_pid",
          "type": "uint256"
        },
        {
          "internalType": "uint256",
          "name": "value",
          "type": "uint256"
        }
      ],
      "name": "setAllowanceForPoolToken",
      "outputs": [],
      "stateMutability": "nonpayable",
      "type": "function"
    },
    {
      "inputs": [
        {
          "internalType": "address",
          "name": "owner",
          "type": "address"
        },
        {
          "internalType": "uint256",
          "name": "_pid",
          "type": "uint256"
        },
        {
          "internalType": "uint256",
          "name": "_amount",
          "type": "uint256"
        }
      ],
      "name": "withdrawFrom",
      "outputs": [],
      "stateMutability": "nonpayable",
      "type": "function"
    },
    {
      "inputs": [
        {
          "internalType": "uint256",
          "name": "_pid",
          "type": "uint256"
        },
        {
          "internalType": "uint256",
          "name": "_amount",
          "type": "uint256"
        }
      ],
      "name": "withdraw",
      "outputs": [],
      "stateMutability": "nonpayable",
      "type": "function"
    },
    {
      "inputs": [
        {
          "internalType": "address",
          "name": "tokenAddress",
          "type": "address"
        },
        {
          "internalType": "uint256",
          "name": "_amount",
          "type": "uint256"
        },
        {
          "internalType": "address",
          "name": "contractAddress",
          "type": "address"
        }
      ],
      "name": "setStrategyContractOrDistributionContractAllowance",
      "outputs": [],
      "stateMutability": "nonpayable",
      "type": "function"
    },
    {
      "inputs": [
        {
          "internalType": "address",
          "name": "addr",
          "type": "address"
        }
      ],
      "name": "isContract",
      "outputs": [
        {
          "internalType": "bool",
          "name": "",
          "type": "bool"
        }
      ],
      "stateMutability": "nonpayable",
      "type": "function"
    },
    {
      "inputs": [
        {
          "internalType": "uint256",
          "name": "_pid",
          "type": "uint256"
        }
      ],
      "name": "emergencyWithdraw",
      "outputs": [],
      "stateMutability": "nonpayable",
      "type": "function"
    },
    {
      "inputs": [
        {
          "internalType": "address",
          "name": "_devaddr",
          "type": "address"
        }
      ],
      "name": "setDevFeeReciever",
      "outputs": [],
      "stateMutability": "nonpayable",
      "type": "function"
    },
    {
      "inputs": [],
      "name": "superAdmin",
      "outputs": [
        {
          "internalType": "address",
          "name": "",
          "type": "address"
        }
      ],
      "stateMutability": "view",
      "type": "function"
    },
    {
      "inputs": [],
      "name": "burnSuperAdmin",
      "outputs": [],
      "stateMutability": "nonpayable",
      "type": "function"
    },
    {
      "inputs": [
        {
          "internalType": "address",
          "name": "newOwner",
          "type": "address"
        }
      ],
      "name": "newSuperAdmin",
      "outputs": [],
      "stateMutability": "nonpayable",
      "type": "function"
    }
  ],
  "bytecode": "0x608060405234801561001057600080fd5b50612765806100206000396000f3fe608060405234801561001057600080fd5b506004361061023d5760003560e01c806364482f791161013b578063c4014588116100b8578063e18cb4fe1161007c578063e18cb4fe14610642578063e2bbb15814610663578063eded3fda14610686578063f2f4eb261461068e578063f2fde38b146106965761023d565b8063c40145881461058e578063c507aeaa146105c4578063c8ffb87314610600578063d49e77cd14610608578063dbe0901f146106105761023d565b806393f1a40b116100ff57806393f1a40b146104b75780639dbc2d90146104fc578063a4f00c8214610504578063a676860a14610530578063c0c53b8b146105565761023d565b806364482f791461046c578063715018a6146104975780638da5cb5b1461049f578063900cf0cf146104a7578063934eaa50146104af5761023d565b8063423d6fa0116101c95780635207cc0d1161018d5780635207cc0d146104125780635312ea8e146104375780635d577c1814610454578063608c8d3a1461045c578063630b5ba1146104645761023d565b8063423d6fa01461037b578063441a3e701461039857806349c5468d146103bb5780634cf5fbf5146103c35780634dc47d34146103f55761023d565b806317caf6f11161021057806317caf6f1146102ed57806329575f6a146102f55780632d6754e5146103195780633a0967cd146103415780633aab0a62146103735761023d565b806303dec00914610242578063081e3eda1461025c5780631526fe271461026457806316279055146102b3575b600080fd5b61024a6106bc565b60408051918252519081900360200190f35b61024a6106e4565b6102816004803603602081101561027a57600080fd5b50356106ea565b604080516001600160a01b03909516855260208501939093528383019190915215156060830152519081900360800190f35b6102d9600480360360208110156102c957600080fd5b50356001600160a01b031661072e565b604080519115158252519081900360200190f35b61024a610738565b6102fd61073e565b604080516001600160a01b039092168252519081900360200190f35b61033f6004803603602081101561032f57600080fd5b50356001600160a01b031661074d565b005b61033f6004803603606081101561035757600080fd5b506001600160a01b0381351690602081013590604001356107c7565b61033f6108ce565b61033f6004803603602081101561039157600080fd5b5035610962565b61033f600480360360408110156103ae57600080fd5b5080359060200135610a92565b61024a610a9e565b61033f600480360360608110156103d957600080fd5b506001600160a01b038135169060208101359060400135610aa4565b61024a6004803603602081101561040b57600080fd5b5035610b91565b61033f6004803603604081101561042857600080fd5b50803590602001351515610ba3565b61033f6004803603602081101561044d57600080fd5b5035610c2f565b61024a610d0e565b61024a610d14565b61033f610d1a565b61033f6004803603606081101561048257600080fd5b50803590602081013590604001351515610d5b565b61033f610e2c565b6102fd610ece565b61024a610edd565b61033f610ee3565b6104e3600480360360408110156104cd57600080fd5b50803590602001356001600160a01b0316610f81565b6040805192835260208301919091528051918290030190f35b61024a610fa5565b61024a6004803603604081101561051a57600080fd5b50803590602001356001600160a01b0316610fce565b61033f6004803603602081101561054657600080fd5b50356001600160a01b031661104b565b61033f6004803603606081101561056c57600080fd5b506001600160a01b038135811691602081013582169160409091013516611140565b61033f600480360360608110156105a457600080fd5b506001600160a01b0381358116916020810135916040909101351661123c565b61033f600480360360808110156105da57600080fd5b508035906001600160a01b036020820135169060408101351515906060013515156113a9565b61024a6115b8565b6102fd6115be565b61033f6004803603606081101561062657600080fd5b506001600160a01b0381351690602081013590604001356115cd565b61033f6004803603602081101561065857600080fd5b503561ffff16611651565b61033f6004803603604081101561067957600080fd5b5080359060200135611715565b61024a6117e9565b6102fd6117ef565b61033f600480360360208110156106ac57600080fd5b50356001600160a01b03166117fe565b60006106df6106d6609e54436118f790919063ffffffff16565b60a05490611940565b905090565b60995490565b609981815481106106f757fe5b600091825260209091206005909102018054600182015460028301546003909301546001600160a01b039092169350919060ff1684565b803b15155b919050565b609b5481565b60a6546001600160a01b031690565b610755611982565b6065546001600160a01b039081169116146107a5576040805162461bcd60e51b8152602060048201819052602482015260008051602061266c833981519152604482015290519081900360640190fd5b609880546001600160a01b0319166001600160a01b0392909216919091179055565b6000609983815481106107d657fe5b600091825260208083206001600160a01b03881684526004600590930201918201815260408084203385529091529091205490915082111561085f576040805162461bcd60e51b815260206004820181905260248201527f77697468647261773a20696e73756666696369656e7420616c6c6f77616e6365604482015290519081900360640190fd5b6001600160a01b0384166000908152600482016020908152604080832033845290915290205461088f90836118f7565b6001600160a01b03851660009081526004830160209081526040808320338085529252909120919091556108c890849084908790611986565b50505050565b43609e5461c3500110610928576040805162461bcd60e51b815260206004820152601760248201527f4e65772065706f6368206e6f7420726561647920796574000000000000000000604482015290519081900360640190fd5b60a05460a154600090815260a260205260409020819055609f5461094b91611afe565b609f55600060a05543609e5560a180546001019055565b60a554609754604080516370a0823160e01b815230600482015290516000936109eb9390926001600160a01b03909116916370a0823191602480820192602092909190829003018186803b1580156109b957600080fd5b505afa1580156109cd573d6000803e3d6000fd5b505050506040513d60208110156109e357600080fd5b5051906118f7565b90508015610a8e57609754604080516370a0823160e01b815230600482015290516001600160a01b03909216916370a0823191602480820192602092909190829003018186803b158015610a3e57600080fd5b505afa158015610a52573d6000803e3d6000fd5b505050506040513d6020811015610a6857600080fd5b505160a555609c54610a7a9082611afe565b609c5560a054610a8a9082611afe565b60a0555b5050565b610a8e82823333611986565b609d5481565b600060998381548110610ab357fe5b60009182526020808320868452609a825260408085206001600160a01b038a168652909252922060059091029091019150610aec610d1a565b610af884838388611b58565b8215610b24578154610b15906001600160a01b0316333086611ba3565b8054610b219084611afe565b81555b60028201548154610b459164e8d4a5100091610b3f91611bfd565b90611940565b600182015560408051848152905185916001600160a01b038816917f90890809c654f11d6e72a28fa60149770a0d11ec6c92319d6ceb2bb0a4ea1a159181900360200190a35050505050565b60a26020526000908152604090205481565b610bab611982565b6065546001600160a01b03908116911614610bfb576040805162461bcd60e51b8152602060048201819052602482015260008051602061266c833981519152604482015290519081900360640190fd5b8060998381548110610c0957fe5b60009182526020909120600590910201600301805460ff19169115159190911790555050565b600060998281548110610c3e57fe5b60009182526020909120600590910201600381015490915060ff16610c945760405162461bcd60e51b81526004018080602001828103825260268152602001806126ba6026913960400191505060405180910390fd5b6000828152609a60209081526040808320338085529252909120805483549192610cc7926001600160a01b031691611c56565b80546040805191825251849133917fbb757047c2b5f3974fe26b7c10f732e7bce710b0952a71082702781e62ae05959181900360200190a360008082556001909101555050565b609e5481565b60a05481565b6099546000805b82811015610d4657610d3c610d3582611cad565b8390611afe565b9150600101610d21565b50609c54610d5490826118f7565b609c555050565b610d63611982565b6065546001600160a01b03908116911614610db3576040805162461bcd60e51b8152602060048201819052602482015260008051602061266c833981519152604482015290519081900360640190fd5b8015610dc157610dc1610d1a565b610dfe82610df860998681548110610dd557fe5b906000526020600020906005020160010154609b546118f790919063ffffffff16565b90611afe565b609b819055508160998481548110610e1257fe5b906000526020600020906005020160010181905550505050565b610e34611982565b6065546001600160a01b03908116911614610e84576040805162461bcd60e51b8152602060048201819052602482015260008051602061266c833981519152604482015290519081900360640190fd5b6065546040516000916001600160a01b0316907f8be0079c531659141344cd1fd0a4f28419497f9722a3daafe3b4186f6b6457e0908390a3606580546001600160a01b0319169055565b6065546001600160a01b031690565b60a15481565b610eeb611982565b60a6546001600160a01b03908116911614610f375760405162461bcd60e51b81526004018080602001828103825260288152602001806126236028913960400191505060405180910390fd5b60a6546040516000916001600160a01b0316907ff564c40f4f45e62a2c1e6c22e8bfb46501f0f71fa1c72e5358903fa1115a4b64908390a360a680546001600160a01b0319169055565b609a6020908152600092835260408084209091529082529020805460019091015482565b60006106df610fbf609d54436118f790919063ffffffff16565b60a054609f54610b3f91611afe565b60008060998481548110610fde57fe5b60009182526020808320878452609a825260408085206001600160a01b03891686529092529220600260059092029092019081015460018301548354929450909161103f91906110399064e8d4a5100090610b3f9086611bfd565b906118f7565b93505050505b92915050565b611053611982565b60a6546001600160a01b0390811691161461109f5760405162461bcd60e51b81526004018080602001828103825260288152602001806126236028913960400191505060405180910390fd5b6001600160a01b0381166110e45760405162461bcd60e51b81526004018080602001828103825260268152602001806125d86026913960400191505060405180910390fd5b60a6546040516001600160a01b038084169216907ff564c40f4f45e62a2c1e6c22e8bfb46501f0f71fa1c72e5358903fa1115a4b6490600090a360a680546001600160a01b0319166001600160a01b0392909216919091179055565b600054610100900460ff16806111595750611159611de6565b80611167575060005460ff16155b6111a25760405162461bcd60e51b815260040180806020018281038252602e81526020018061268c602e913960400191505060405180910390fd5b600054610100900460ff161580156111cd576000805460ff1961ff0019909116610100171660011790555b6111d5611dec565b60a3805461ffff19166102d4179055609780546001600160a01b038087166001600160a01b0319928316179092556098805486841690831617905543609d5560a680549285169290911691909117905580156108c8576000805461ff001916905550505050565b611244611982565b60a6546001600160a01b039081169116146112905760405162461bcd60e51b81526004018080602001828103825260288152602001806126236028913960400191505060405180910390fd5b6112998161072e565b6112d45760405162461bcd60e51b81526004018080602001828103825260258152602001806125fe6025913960400191505060405180910390fd5b609d546112e49062017318611afe565b43116113215760405162461bcd60e51b81526004018080602001828103825260268152602001806126e06026913960400191505060405180910390fd5b826001600160a01b031663095ea7b382846040518363ffffffff1660e01b815260040180836001600160a01b0316815260200182815260200192505050602060405180830381600087803b15801561137857600080fd5b505af115801561138c573d6000803e3d6000fd5b505050506040513d60208110156113a257600080fd5b5050505050565b6113b1611982565b6065546001600160a01b03908116911614611401576040805162461bcd60e51b8152602060048201819052602482015260008051602061266c833981519152604482015290519081900360640190fd5b811561140f5761140f610d1a565b60995460005b818110156114a957846001600160a01b03166099828154811061143457fe5b60009182526020909120600590910201546001600160a01b031614156114a1576040805162461bcd60e51b815260206004820152601860248201527f4572726f7220706f6f6c20616c72656164792061646465640000000000000000604482015290519081900360640190fd5b600101611415565b50609b546114b79086611afe565b609b5550604080516080810182526001600160a01b0394851681526020810195865260009181018281529215156060820190815260998054600181018255935290517f72a152ddfb8e864297c917af52ea6c1c68aead0fee1a62673fcc7e0c94979d00600590930292830180546001600160a01b031916919096161790945593517f72a152ddfb8e864297c917af52ea6c1c68aead0fee1a62673fcc7e0c94979d01850155517f72a152ddfb8e864297c917af52ea6c1c68aead0fee1a62673fcc7e0c94979d0284015550517f72a152ddfb8e864297c917af52ea6c1c68aead0fee1a62673fcc7e0c94979d03909101805460ff1916911515919091179055565b609f5481565b6098546001600160a01b031681565b6000609983815481106115dc57fe5b60009182526020808320338085526005939093020160048101825260408085206001600160a01b038a1680875290845294819020879055805188815292830187905280519195507fb3fd5071835887567a0671151121894ddccc2842f1d10bedad13e0d17cace9a7928290030190a350505050565b611659611982565b6065546001600160a01b039081169116146116a9576040805162461bcd60e51b8152602060048201819052602482015260008051602061266c833981519152604482015290519081900360640190fd5b6103e88161ffff1611156116fd576040805162461bcd60e51b81526020600482015260166024820152754465762066656520636c616d7065642061742031302560501b604482015290519081900360640190fd5b60a3805461ffff191661ffff92909216919091179055565b60006099838154811061172457fe5b60009182526020808320868452609a82526040808520338652909252922060059091029091019150611754610d1a565b61176084838333611b58565b821561178c57815461177d906001600160a01b0316333086611ba3565b80546117899084611afe565b81555b600282015481546117a79164e8d4a5100091610b3f91611bfd565b6001820155604080518481529051859133917f90890809c654f11d6e72a28fa60149770a0d11ec6c92319d6ceb2bb0a4ea1a159181900360200190a350505050565b609c5481565b6097546001600160a01b031681565b611806611982565b6065546001600160a01b03908116911614611856576040805162461bcd60e51b8152602060048201819052602482015260008051602061266c833981519152604482015290519081900360640190fd5b6001600160a01b03811661189b5760405162461bcd60e51b81526004018080602001828103825260268152602001806125d86026913960400191505060405180910390fd5b6065546040516001600160a01b038084169216907f8be0079c531659141344cd1fd0a4f28419497f9722a3daafe3b4186f6b6457e090600090a3606580546001600160a01b0319166001600160a01b0392909216919091179055565b600061193983836040518060400160405280601e81526020017f536166654d6174683a207375627472616374696f6e206f766572666c6f770000815250611e9e565b9392505050565b600061193983836040518060400160405280601a81526020017f536166654d6174683a206469766973696f6e206279207a65726f000000000000815250611f35565b3390565b60006099858154811061199557fe5b60009182526020909120600590910201600381015490915060ff166119eb5760405162461bcd60e51b81526004018080602001828103825260268152602001806126ba6026913960400191505060405180910390fd5b6000858152609a602090815260408083206001600160a01b038716845290915290208054851115611a58576040805162461bcd60e51b81526020600482015260126024820152711dda5d1a191c985dce881b9bdd0819dbdbd960721b604482015290519081900360640190fd5b611a60610d1a565b611a6c86838387611b58565b8415611a96578054611a7e90866118f7565b81558154611a96906001600160a01b03168487611c56565b60028201548154611ab19164e8d4a5100091610b3f91611bfd565b600182015560408051868152905187916001600160a01b038616917ff279e6a1f5e320cca91135676d9cb6e44ca8a08c0b88342bcdb1144f6511b5689181900360200190a3505050505050565b600082820183811015611939576040805162461bcd60e51b815260206004820152601b60248201527f536166654d6174683a206164646974696f6e206f766572666c6f770000000000604482015290519081900360640190fd5b8154611b63576108c8565b6000611b91836001015461103964e8d4a51000610b3f88600201548860000154611bfd90919063ffffffff16565b905080156113a2576113a28282611f9a565b604080516001600160a01b0380861660248301528416604482015260648082018490528251808303909101815260849091019091526020810180516001600160e01b03166323b872dd60e01b1790526108c890859061224a565b600082611c0c57506000611045565b82820282848281611c1957fe5b04146119395760405162461bcd60e51b815260040180806020018281038252602181526020018061264b6021913960400191505060405180910390fd5b604080516001600160a01b038416602482015260448082018490528251808303909101815260649091019091526020810180516001600160e01b031663a9059cbb60e01b179052611ca890849061224a565b505050565b60008060998381548110611cbd57fe5b6000918252602080832060059092029091018054604080516370a0823160e01b815230600482015290519295506001600160a01b03909116926370a0823192602480840193829003018186803b158015611d1657600080fd5b505afa158015611d2a573d6000803e3d6000fd5b505050506040513d6020811015611d4057600080fd5b5051905080611d5457600092505050610733565b611d73609b54610b3f8460010154609c54611bfd90919063ffffffff16565b60a354909350600090611d939061271090610b3f90879061ffff16611bfd565b90506000611da185836118f7565b60a454909150611db19083611afe565b60a455611dd5611dca84610b3f8464e8d4a51000611bfd565b600286015490611afe565b846002018190555050505050919050565b303b1590565b600054610100900460ff1680611e055750611e05611de6565b80611e13575060005460ff16155b611e4e5760405162461bcd60e51b815260040180806020018281038252602e81526020018061268c602e913960400191505060405180910390fd5b600054610100900460ff16158015611e79576000805460ff1961ff0019909116610100171660011790555b611e81612402565b611e896124a2565b8015611e9b576000805461ff00191690555b50565b60008184841115611f2d5760405162461bcd60e51b81526004018080602001828103825283818151815260200191508051906020019080838360005b83811015611ef2578181015183820152602001611eda565b50505050905090810190601f168015611f1f5780820380516001836020036101000a031916815260200191505b509250505060405180910390fd5b505050900390565b60008183611f845760405162461bcd60e51b8152602060048201818152835160248401528351909283926044909101919085019080838360008315611ef2578181015183820152602001611eda565b506000838581611f9057fe5b0495945050505050565b80611fa457610a8e565b609754604080516370a0823160e01b815230600482015290516000926001600160a01b0316916370a08231916024808301926020929190829003018186803b158015611fef57600080fd5b505afa158015612003573d6000803e3d6000fd5b505050506040513d602081101561201957600080fd5b5051905080821115612126576097546040805163a9059cbb60e01b81526001600160a01b038681166004830152602482018590529151919092169163a9059cbb9160448083019260209291908290030181600087803b15801561207b57600080fd5b505af115801561208f573d6000803e3d6000fd5b505050506040513d60208110156120a557600080fd5b5050609754604080516370a0823160e01b815230600482015290516001600160a01b03909216916370a0823191602480820192602092909190829003018186803b1580156120f257600080fd5b505afa158015612106573d6000803e3d6000fd5b505050506040513d602081101561211c57600080fd5b505160a555612223565b6097546040805163a9059cbb60e01b81526001600160a01b038681166004830152602482018690529151919092169163a9059cbb9160448083019260209291908290030181600087803b15801561217c57600080fd5b505af1158015612190573d6000803e3d6000fd5b505050506040513d60208110156121a657600080fd5b5050609754604080516370a0823160e01b815230600482015290516001600160a01b03909216916370a0823191602480820192602092909190829003018186803b1580156121f357600080fd5b505afa158015612207573d6000803e3d6000fd5b505050506040513d602081101561221d57600080fd5b505160a5555b60a45415611ca85760a4805460009091556098546108c8906001600160a01b031682611f9a565b61225c826001600160a01b031661259b565b6122ad576040805162461bcd60e51b815260206004820152601f60248201527f5361666545524332303a2063616c6c20746f206e6f6e2d636f6e747261637400604482015290519081900360640190fd5b60006060836001600160a01b0316836040518082805190602001908083835b602083106122eb5780518252601f1990920191602091820191016122cc565b6001836020036101000a0380198251168184511680821785525050505050509050019150506000604051808303816000865af19150503d806000811461234d576040519150601f19603f3d011682016040523d82523d6000602084013e612352565b606091505b5091509150816123a9576040805162461bcd60e51b815260206004820181905260248201527f5361666545524332303a206c6f772d6c6576656c2063616c6c206661696c6564604482015290519081900360640190fd5b8051156108c8578080602001905160208110156123c557600080fd5b50516108c85760405162461bcd60e51b815260040180806020018281038252602a815260200180612706602a913960400191505060405180910390fd5b600054610100900460ff168061241b575061241b611de6565b80612429575060005460ff16155b6124645760405162461bcd60e51b815260040180806020018281038252602e81526020018061268c602e913960400191505060405180910390fd5b600054610100900460ff16158015611e89576000805460ff1961ff0019909116610100171660011790558015611e9b576000805461ff001916905550565b600054610100900460ff16806124bb57506124bb611de6565b806124c9575060005460ff16155b6125045760405162461bcd60e51b815260040180806020018281038252602e81526020018061268c602e913960400191505060405180910390fd5b600054610100900460ff1615801561252f576000805460ff1961ff0019909116610100171660011790555b6000612539611982565b606580546001600160a01b0319166001600160a01b038316908117909155604051919250906000907f8be0079c531659141344cd1fd0a4f28419497f9722a3daafe3b4186f6b6457e0908290a3508015611e9b576000805461ff001916905550565b6000813f7fc5d2460186f7233c927e7db2dcc703c0e500b653ca82273b7bfad8045d85a4708181148015906125cf57508115155b94935050505056fe4f776e61626c653a206e6577206f776e657220697320746865207a65726f20616464726573735265636970656e74206973206e6f74206120736d61727420636f6e74726163742c2042414453757065722061646d696e203a2063616c6c6572206973206e6f742073757065722061646d696e2e536166654d6174683a206d756c7469706c69636174696f6e206f766572666c6f774f776e61626c653a2063616c6c6572206973206e6f7420746865206f776e6572436f6e747261637420696e7374616e63652068617320616c7265616479206265656e20696e697469616c697a65645769746864726177696e672066726f6d207468697320706f6f6c2069732064697361626c6564476f7665726e616e636520736574757020677261636520706572696f64206e6f74206f7665725361666545524332303a204552433230206f7065726174696f6e20646964206e6f742073756363656564a26469706673582212203ebe0668d0e2555d4fe34469dc54b8adcec60fb3b267dc26ec4b644564d53fca64736f6c634300060c0033",
  "immutableReferences": {},
  "source": "\n// File: @openzeppelin/contracts-ethereum-package/contracts/token/ERC20/IERC20.sol\n\npragma solidity ^0.6.0;\n\n/**\n * @dev Interface of the ERC20 standard as defined in the EIP.\n */\ninterface IERC20 {\n    /**\n     * @dev Returns the amount of tokens in existence.\n     */\n    function totalSupply() external view returns (uint256);\n\n    /**\n     * @dev Returns the amount of tokens owned by `account`.\n     */\n    function balanceOf(address account) external view returns (uint256);\n\n    /**\n     * @dev Moves `amount` tokens from the caller's account to `recipient`.\n     *\n     * Returns a boolean value indicating whether the operation succeeded.\n     *\n     * Emits a {Transfer} event.\n     */\n    function transfer(address recipient, uint256 amount) external returns (bool);\n\n    /**\n     * @dev Returns the remaining number of tokens that `spender` will be\n     * allowed to spend on behalf of `owner` through {transferFrom}. This is\n     * zero by default.\n     *\n     * This value changes when {approve} or {transferFrom} are called.\n     */\n    function allowance(address owner, address spender) external view returns (uint256);\n\n    /**\n     * @dev Sets `amount` as the allowance of `spender` over the caller's tokens.\n     *\n     * Returns a boolean value indicating whether the operation succeeded.\n     *\n     * IMPORTANT: Beware that changing an allowance with this method brings the risk\n     * that someone may use both the old and the new allowance by unfortunate\n     * transaction ordering. One possible solution to mitigate this race\n     * condition is to first reduce the spender's allowance to 0 and set the\n     * desired value afterwards:\n     * https://github.com/ethereum/EIPs/issues/20#issuecomment-263524729\n     *\n     * Emits an {Approval} event.\n     */\n    function approve(address spender, uint256 amount) external returns (bool);\n\n    /**\n     * @dev Moves `amount` tokens from `sender` to `recipient` using the\n     * allowance mechanism. `amount` is then deducted from the caller's\n     * allowance.\n     *\n     * Returns a boolean value indicating whether the operation succeeded.\n     *\n     * Emits a {Transfer} event.\n     */\n    function transferFrom(address sender, address recipient, uint256 amount) external returns (bool);\n\n    /**\n     * @dev Emitted when `value` tokens are moved from one account (`from`) to\n     * another (`to`).\n     *\n     * Note that `value` may be zero.\n     */\n    event Transfer(address indexed from, address indexed to, uint256 value);\n\n    /**\n     * @dev Emitted when the allowance of a `spender` for an `owner` is set by\n     * a call to {approve}. `value` is the new allowance.\n     */\n    event Approval(address indexed owner, address indexed spender, uint256 value);\n}\n\n// File: @openzeppelin/contracts-ethereum-package/contracts/math/SafeMath.sol\n\npragma solidity ^0.6.0;\n\n/**\n * @dev Wrappers over Solidity's arithmetic operations with added overflow\n * checks.\n *\n * Arithmetic operations in Solidity wrap on overflow. This can easily result\n * in bugs, because programmers usually assume that an overflow raises an\n * error, which is the standard behavior in high level programming languages.\n * `SafeMath` restores this intuition by reverting the transaction when an\n * operation overflows.\n *\n * Using this library instead of the unchecked operations eliminates an entire\n * class of bugs, so it's recommended to use it always.\n */\nlibrary SafeMath {\n    /**\n     * @dev Returns the addition of two unsigned integers, reverting on\n     * overflow.\n     *\n     * Counterpart to Solidity's `+` operator.\n     *\n     * Requirements:\n     * - Addition cannot overflow.\n     */\n    function add(uint256 a, uint256 b) internal pure returns (uint256) {\n        uint256 c = a + b;\n        require(c >= a, \"SafeMath: addition overflow\");\n\n        return c;\n    }\n\n    /**\n     * @dev Returns the subtraction of two unsigned integers, reverting on\n     * overflow (when the result is negative).\n     *\n     * Counterpart to Solidity's `-` operator.\n     *\n     * Requirements:\n     * - Subtraction cannot overflow.\n     */\n    function sub(uint256 a, uint256 b) internal pure returns (uint256) {\n        return sub(a, b, \"SafeMath: subtraction overflow\");\n    }\n\n    /**\n     * @dev Returns the subtraction of two unsigned integers, reverting with custom message on\n     * overflow (when the result is negative).\n     *\n     * Counterpart to Solidity's `-` operator.\n     *\n     * Requirements:\n     * - Subtraction cannot overflow.\n     */\n    function sub(uint256 a, uint256 b, string memory errorMessage) internal pure returns (uint256) {\n        require(b <= a, errorMessage);\n        uint256 c = a - b;\n\n        return c;\n    }\n\n    /**\n     * @dev Returns the multiplication of two unsigned integers, reverting on\n     * overflow.\n     *\n     * Counterpart to Solidity's `*` operator.\n     *\n     * Requirements:\n     * - Multiplication cannot overflow.\n     */\n    function mul(uint256 a, uint256 b) internal pure returns (uint256) {\n        // Gas optimization: this is cheaper than requiring 'a' not being zero, but the\n        // benefit is lost if 'b' is also tested.\n        // See: https://github.com/OpenZeppelin/openzeppelin-contracts/pull/522\n        if (a == 0) {\n            return 0;\n        }\n\n        uint256 c = a * b;\n        require(c / a == b, \"SafeMath: multiplication overflow\");\n\n        return c;\n    }\n\n    /**\n     * @dev Returns the integer division of two unsigned integers. Reverts on\n     * division by zero. The result is rounded towards zero.\n     *\n     * Counterpart to Solidity's `/` operator. Note: this function uses a\n     * `revert` opcode (which leaves remaining gas untouched) while Solidity\n     * uses an invalid opcode to revert (consuming all remaining gas).\n     *\n     * Requirements:\n     * - The divisor cannot be zero.\n     */\n    function div(uint256 a, uint256 b) internal pure returns (uint256) {\n        return div(a, b, \"SafeMath: division by zero\");\n    }\n\n    /**\n     * @dev Returns the integer division of two unsigned integers. Reverts with custom message on\n     * division by zero. The result is rounded towards zero.\n     *\n     * Counterpart to Solidity's `/` operator. Note: this function uses a\n     * `revert` opcode (which leaves remaining gas untouched) while Solidity\n     * uses an invalid opcode to revert (consuming all remaining gas).\n     *\n     * Requirements:\n     * - The divisor cannot be zero.\n     */\n    function div(uint256 a, uint256 b, string memory errorMessage) internal pure returns (uint256) {\n        // Solidity only automatically asserts when dividing by 0\n        require(b > 0, errorMessage);\n        uint256 c = a / b;\n        // assert(a == b * c + a % b); // There is no case in which this doesn't hold\n\n        return c;\n    }\n\n    /**\n     * @dev Returns the remainder of dividing two unsigned integers. (unsigned integer modulo),\n     * Reverts when dividing by zero.\n     *\n     * Counterpart to Solidity's `%` operator. This function uses a `revert`\n     * opcode (which leaves remaining gas untouched) while Solidity uses an\n     * invalid opcode to revert (consuming all remaining gas).\n     *\n     * Requirements:\n     * - The divisor cannot be zero.\n     */\n    function mod(uint256 a, uint256 b) internal pure returns (uint256) {\n        return mod(a, b, \"SafeMath: modulo by zero\");\n    }\n\n    /**\n     * @dev Returns the remainder of dividing two unsigned integers. (unsigned integer modulo),\n     * Reverts with custom message when dividing by zero.\n     *\n     * Counterpart to Solidity's `%` operator. This function uses a `revert`\n     * opcode (which leaves remaining gas untouched) while Solidity uses an\n     * invalid opcode to revert (consuming all remaining gas).\n     *\n     * Requirements:\n     * - The divisor cannot be zero.\n     */\n    function mod(uint256 a, uint256 b, string memory errorMessage) internal pure returns (uint256) {\n        require(b != 0, errorMessage);\n        return a % b;\n    }\n}\n\n// File: @openzeppelin/contracts-ethereum-package/contracts/utils/Address.sol\n\npragma solidity ^0.6.2;\n\n/**\n * @dev Collection of functions related to the address type\n */\nlibrary Address {\n    /**\n     * @dev Returns true if `account` is a contract.\n     *\n     * [IMPORTANT]\n     * ====\n     * It is unsafe to assume that an address for which this function returns\n     * false is an externally-owned account (EOA) and not a contract.\n     *\n     * Among others, `isContract` will return false for the following\n     * types of addresses:\n     *\n     *  - an externally-owned account\n     *  - a contract in construction\n     *  - an address where a contract will be created\n     *  - an address where a contract lived, but was destroyed\n     * ====\n     */\n    function isContract(address account) internal view returns (bool) {\n        // According to EIP-1052, 0x0 is the value returned for not-yet created accounts\n        // and 0xc5d2460186f7233c927e7db2dcc703c0e500b653ca82273b7bfad8045d85a470 is returned\n        // for accounts without code, i.e. `keccak256('')`\n        bytes32 codehash;\n        bytes32 accountHash = 0xc5d2460186f7233c927e7db2dcc703c0e500b653ca82273b7bfad8045d85a470;\n        // solhint-disable-next-line no-inline-assembly\n        assembly { codehash := extcodehash(account) }\n        return (codehash != accountHash && codehash != 0x0);\n    }\n\n    /**\n     * @dev Replacement for Solidity's `transfer`: sends `amount` wei to\n     * `recipient`, forwarding all available gas and reverting on errors.\n     *\n     * https://eips.ethereum.org/EIPS/eip-1884[EIP1884] increases the gas cost\n     * of certain opcodes, possibly making contracts go over the 2300 gas limit\n     * imposed by `transfer`, making them unable to receive funds via\n     * `transfer`. {sendValue} removes this limitation.\n     *\n     * https://diligence.consensys.net/posts/2019/09/stop-using-soliditys-transfer-now/[Learn more].\n     *\n     * IMPORTANT: because control is transferred to `recipient`, care must be\n     * taken to not create reentrancy vulnerabilities. Consider using\n     * {ReentrancyGuard} or the\n     * https://solidity.readthedocs.io/en/v0.5.11/security-considerations.html#use-the-checks-effects-interactions-pattern[checks-effects-interactions pattern].\n     */\n    function sendValue(address payable recipient, uint256 amount) internal {\n        require(address(this).balance >= amount, \"Address: insufficient balance\");\n\n        // solhint-disable-next-line avoid-low-level-calls, avoid-call-value\n        (bool success, ) = recipient.call{ value: amount }(\"\");\n        require(success, \"Address: unable to send value, recipient may have reverted\");\n    }\n}\n\n// File: @openzeppelin/contracts-ethereum-package/contracts/token/ERC20/SafeERC20.sol\n\npragma solidity ^0.6.0;\n\n\n\n\n/**\n * @title SafeERC20\n * @dev Wrappers around ERC20 operations that throw on failure (when the token\n * contract returns false). Tokens that return no value (and instead revert or\n * throw on failure) are also supported, non-reverting calls are assumed to be\n * successful.\n * To use this library you can add a `using SafeERC20 for ERC20;` statement to your contract,\n * which allows you to call the safe operations as `token.safeTransfer(...)`, etc.\n */\nlibrary SafeERC20 {\n    using SafeMath for uint256;\n    using Address for address;\n\n    function safeTransfer(IERC20 token, address to, uint256 value) internal {\n        _callOptionalReturn(token, abi.encodeWithSelector(token.transfer.selector, to, value));\n    }\n\n    function safeTransferFrom(IERC20 token, address from, address to, uint256 value) internal {\n        _callOptionalReturn(token, abi.encodeWithSelector(token.transferFrom.selector, from, to, value));\n    }\n\n    function safeApprove(IERC20 token, address spender, uint256 value) internal {\n        // safeApprove should only be called when setting an initial allowance,\n        // or when resetting it to zero. To increase and decrease it, use\n        // 'safeIncreaseAllowance' and 'safeDecreaseAllowance'\n        // solhint-disable-next-line max-line-length\n        require((value == 0) || (token.allowance(address(this), spender) == 0),\n            \"SafeERC20: approve from non-zero to non-zero allowance\"\n        );\n        _callOptionalReturn(token, abi.encodeWithSelector(token.approve.selector, spender, value));\n    }\n\n    function safeIncreaseAllowance(IERC20 token, address spender, uint256 value) internal {\n        uint256 newAllowance = token.allowance(address(this), spender).add(value);\n        _callOptionalReturn(token, abi.encodeWithSelector(token.approve.selector, spender, newAllowance));\n    }\n\n    function safeDecreaseAllowance(IERC20 token, address spender, uint256 value) internal {\n        uint256 newAllowance = token.allowance(address(this), spender).sub(value, \"SafeERC20: decreased allowance below zero\");\n        _callOptionalReturn(token, abi.encodeWithSelector(token.approve.selector, spender, newAllowance));\n    }\n\n    /**\n     * @dev Imitates a Solidity high-level call (i.e. a regular function call to a contract), relaxing the requirement\n     * on the return value: the return value is optional (but if data is returned, it must not be false).\n     * @param token The token targeted by the call.\n     * @param data The call data (encoded using abi.encode or one of its variants).\n     */\n    function _callOptionalReturn(IERC20 token, bytes memory data) private {\n        // We need to perform a low level call here, to bypass Solidity's return data size checking mechanism, since\n        // we're implementing it ourselves.\n\n        // A Solidity high level call has three parts:\n        //  1. The target address is checked to verify it contains contract code\n        //  2. The call itself is made, and success asserted\n        //  3. The return value is decoded, which in turn checks the size of the returned data.\n        // solhint-disable-next-line max-line-length\n        require(address(token).isContract(), \"SafeERC20: call to non-contract\");\n\n        // solhint-disable-next-line avoid-low-level-calls\n        (bool success, bytes memory returndata) = address(token).call(data);\n        require(success, \"SafeERC20: low-level call failed\");\n\n        if (returndata.length > 0) { // Return data is optional\n            // solhint-disable-next-line max-line-length\n            require(abi.decode(returndata, (bool)), \"SafeERC20: ERC20 operation did not succeed\");\n        }\n    }\n}\n\n// File: @openzeppelin/contracts-ethereum-package/contracts/utils/EnumerableSet.sol\n\npragma solidity ^0.6.0;\n\n/**\n * @dev Library for managing\n * https://en.wikipedia.org/wiki/Set_(abstract_data_type)[sets] of primitive\n * types.\n *\n * Sets have the following properties:\n *\n * - Elements are added, removed, and checked for existence in constant time\n * (O(1)).\n * - Elements are enumerated in O(n). No guarantees are made on the ordering.\n *\n * ```\n * contract Example {\n *     // Add the library methods\n *     using EnumerableSet for EnumerableSet.AddressSet;\n *\n *     // Declare a set state variable\n *     EnumerableSet.AddressSet private mySet;\n * }\n * ```\n *\n * As of v3.0.0, only sets of type `address` (`AddressSet`) and `uint256`\n * (`UintSet`) are supported.\n */\nlibrary EnumerableSet {\n    // To implement this library for multiple types with as little code\n    // repetition as possible, we write it in terms of a generic Set type with\n    // bytes32 values.\n    // The Set implementation uses private functions, and user-facing\n    // implementations (such as AddressSet) are just wrappers around the\n    // underlying Set.\n    // This means that we can only create new EnumerableSets for types that fit\n    // in bytes32.\n\n    struct Set {\n        // Storage of set values\n        bytes32[] _values;\n\n        // Position of the value in the `values` array, plus 1 because index 0\n        // means a value is not in the set.\n        mapping (bytes32 => uint256) _indexes;\n    }\n\n    /**\n     * @dev Add a value to a set. O(1).\n     *\n     * Returns true if the value was added to the set, that is if it was not\n     * already present.\n     */\n    function _add(Set storage set, bytes32 value) private returns (bool) {\n        if (!_contains(set, value)) {\n            set._values.push(value);\n            // The value is stored at length-1, but we add 1 to all indexes\n            // and use 0 as a sentinel value\n            set._indexes[value] = set._values.length;\n            return true;\n        } else {\n            return false;\n        }\n    }\n\n    /**\n     * @dev Removes a value from a set. O(1).\n     *\n     * Returns true if the value was removed from the set, that is if it was\n     * present.\n     */\n    function _remove(Set storage set, bytes32 value) private returns (bool) {\n        // We read and store the value's index to prevent multiple reads from the same storage slot\n        uint256 valueIndex = set._indexes[value];\n\n        if (valueIndex != 0) { // Equivalent to contains(set, value)\n            // To delete an element from the _values array in O(1), we swap the element to delete with the last one in\n            // the array, and then remove the last element (sometimes called as 'swap and pop').\n            // This modifies the order of the array, as noted in {at}.\n\n            uint256 toDeleteIndex = valueIndex - 1;\n            uint256 lastIndex = set._values.length - 1;\n\n            // When the value to delete is the last one, the swap operation is unnecessary. However, since this occurs\n            // so rarely, we still do the swap anyway to avoid the gas cost of adding an 'if' statement.\n\n            bytes32 lastvalue = set._values[lastIndex];\n\n            // Move the last value to the index where the value to delete is\n            set._values[toDeleteIndex] = lastvalue;\n            // Update the index for the moved value\n            set._indexes[lastvalue] = toDeleteIndex + 1; // All indexes are 1-based\n\n            // Delete the slot where the moved value was stored\n            set._values.pop();\n\n            // Delete the index for the deleted slot\n            delete set._indexes[value];\n\n            return true;\n        } else {\n            return false;\n        }\n    }\n\n    /**\n     * @dev Returns true if the value is in the set. O(1).\n     */\n    function _contains(Set storage set, bytes32 value) private view returns (bool) {\n        return set._indexes[value] != 0;\n    }\n\n    /**\n     * @dev Returns the number of values on the set. O(1).\n     */\n    function _length(Set storage set) private view returns (uint256) {\n        return set._values.length;\n    }\n\n   /**\n    * @dev Returns the value stored at position `index` in the set. O(1).\n    *\n    * Note that there are no guarantees on the ordering of values inside the\n    * array, and it may change when more values are added or removed.\n    *\n    * Requirements:\n    *\n    * - `index` must be strictly less than {length}.\n    */\n    function _at(Set storage set, uint256 index) private view returns (bytes32) {\n        require(set._values.length > index, \"EnumerableSet: index out of bounds\");\n        return set._values[index];\n    }\n\n    // AddressSet\n\n    struct AddressSet {\n        Set _inner;\n    }\n\n    /**\n     * @dev Add a value to a set. O(1).\n     *\n     * Returns true if the value was added to the set, that is if it was not\n     * already present.\n     */\n    function add(AddressSet storage set, address value) internal returns (bool) {\n        return _add(set._inner, bytes32(uint256(value)));\n    }\n\n    /**\n     * @dev Removes a value from a set. O(1).\n     *\n     * Returns true if the value was removed from the set, that is if it was\n     * present.\n     */\n    function remove(AddressSet storage set, address value) internal returns (bool) {\n        return _remove(set._inner, bytes32(uint256(value)));\n    }\n\n    /**\n     * @dev Returns true if the value is in the set. O(1).\n     */\n    function contains(AddressSet storage set, address value) internal view returns (bool) {\n        return _contains(set._inner, bytes32(uint256(value)));\n    }\n\n    /**\n     * @dev Returns the number of values in the set. O(1).\n     */\n    function length(AddressSet storage set) internal view returns (uint256) {\n        return _length(set._inner);\n    }\n\n   /**\n    * @dev Returns the value stored at position `index` in the set. O(1).\n    *\n    * Note that there are no guarantees on the ordering of values inside the\n    * array, and it may change when more values are added or removed.\n    *\n    * Requirements:\n    *\n    * - `index` must be strictly less than {length}.\n    */\n    function at(AddressSet storage set, uint256 index) internal view returns (address) {\n        return address(uint256(_at(set._inner, index)));\n    }\n\n\n    // UintSet\n\n    struct UintSet {\n        Set _inner;\n    }\n\n    /**\n     * @dev Add a value to a set. O(1).\n     *\n     * Returns true if the value was added to the set, that is if it was not\n     * already present.\n     */\n    function add(UintSet storage set, uint256 value) internal returns (bool) {\n        return _add(set._inner, bytes32(value));\n    }\n\n    /**\n     * @dev Removes a value from a set. O(1).\n     *\n     * Returns true if the value was removed from the set, that is if it was\n     * present.\n     */\n    function remove(UintSet storage set, uint256 value) internal returns (bool) {\n        return _remove(set._inner, bytes32(value));\n    }\n\n    /**\n     * @dev Returns true if the value is in the set. O(1).\n     */\n    function contains(UintSet storage set, uint256 value) internal view returns (bool) {\n        return _contains(set._inner, bytes32(value));\n    }\n\n    /**\n     * @dev Returns the number of values on the set. O(1).\n     */\n    function length(UintSet storage set) internal view returns (uint256) {\n        return _length(set._inner);\n    }\n\n   /**\n    * @dev Returns the value stored at position `index` in the set. O(1).\n    *\n    * Note that there are no guarantees on the ordering of values inside the\n    * array, and it may change when more values are added or removed.\n    *\n    * Requirements:\n    *\n    * - `index` must be strictly less than {length}.\n    */\n    function at(UintSet storage set, uint256 index) internal view returns (uint256) {\n        return uint256(_at(set._inner, index));\n    }\n}\n\n// File: @openzeppelin/contracts-ethereum-package/contracts/Initializable.sol\n\npragma solidity >=0.4.24 <0.7.0;\n\n\n/**\n * @title Initializable\n *\n * @dev Helper contract to support initializer functions. To use it, replace\n * the constructor with a function that has the `initializer` modifier.\n * WARNING: Unlike constructors, initializer functions must be manually\n * invoked. This applies both to deploying an Initializable contract, as well\n * as extending an Initializable contract via inheritance.\n * WARNING: When used with inheritance, manual care must be taken to not invoke\n * a parent initializer twice, or ensure that all initializers are idempotent,\n * because this is not dealt with automatically as with constructors.\n */\ncontract Initializable {\n\n  /**\n   * @dev Indicates that the contract has been initialized.\n   */\n  bool private initialized;\n\n  /**\n   * @dev Indicates that the contract is in the process of being initialized.\n   */\n  bool private initializing;\n\n  /**\n   * @dev Modifier to use in the initializer function of a contract.\n   */\n  modifier initializer() {\n    require(initializing || isConstructor() || !initialized, \"Contract instance has already been initialized\");\n\n    bool isTopLevelCall = !initializing;\n    if (isTopLevelCall) {\n      initializing = true;\n      initialized = true;\n    }\n\n    _;\n\n    if (isTopLevelCall) {\n      initializing = false;\n    }\n  }\n\n  /// @dev Returns true if and only if the function is running in the constructor\n  function isConstructor() private view returns (bool) {\n    // extcodesize checks the size of the code stored in an address, and\n    // address returns the current address. Since the code is still not\n    // deployed when running a constructor, any checks on its code size will\n    // yield zero, making it an effective way to detect if a contract is\n    // under construction or not.\n    address self = address(this);\n    uint256 cs;\n    assembly { cs := extcodesize(self) }\n    return cs == 0;\n  }\n\n  // Reserved storage space to allow for layout changes in the future.\n  uint256[50] private ______gap;\n}\n\n// File: @openzeppelin/contracts-ethereum-package/contracts/GSN/Context.sol\n\npragma solidity ^0.6.0;\n\n\n/*\n * @dev Provides information about the current execution context, including the\n * sender of the transaction and its data. While these are generally available\n * via msg.sender and msg.data, they should not be accessed in such a direct\n * manner, since when dealing with GSN meta-transactions the account sending and\n * paying for execution may not be the actual sender (as far as an application\n * is concerned).\n *\n * This contract is only required for intermediate, library-like contracts.\n */\ncontract ContextUpgradeSafe is Initializable {\n    // Empty internal constructor, to prevent people from mistakenly deploying\n    // an instance of this contract, which should be used via inheritance.\n\n    function __Context_init() internal initializer {\n        __Context_init_unchained();\n    }\n\n    function __Context_init_unchained() internal initializer {\n\n\n    }\n\n\n    function _msgSender() internal view virtual returns (address payable) {\n        return msg.sender;\n    }\n\n    function _msgData() internal view virtual returns (bytes memory) {\n        this; // silence state mutability warning without generating bytecode - see https://github.com/ethereum/solidity/issues/2691\n        return msg.data;\n    }\n\n    uint256[50] private __gap;\n}\n\n// File: @openzeppelin/contracts-ethereum-package/contracts/access/Ownable.sol\n\npragma solidity ^0.6.0;\n\n\n/**\n * @dev Contract module which provides a basic access control mechanism, where\n * there is an account (an owner) that can be granted exclusive access to\n * specific functions.\n *\n * By default, the owner account will be the one that deploys the contract. This\n * can later be changed with {transferOwnership}.\n *\n * This module is used through inheritance. It will make available the modifier\n * `onlyOwner`, which can be applied to your functions to restrict their use to\n * the owner.\n */\ncontract OwnableUpgradeSafe is Initializable, ContextUpgradeSafe {\n    address private _owner;\n\n    event OwnershipTransferred(address indexed previousOwner, address indexed newOwner);\n\n    /**\n     * @dev Initializes the contract setting the deployer as the initial owner.\n     */\n\n    function __Ownable_init() internal initializer {\n        __Context_init_unchained();\n        __Ownable_init_unchained();\n    }\n\n    function __Ownable_init_unchained() internal initializer {\n\n\n        address msgSender = _msgSender();\n        _owner = msgSender;\n        emit OwnershipTransferred(address(0), msgSender);\n\n    }\n\n\n    /**\n     * @dev Returns the address of the current owner.\n     */\n    function owner() public view returns (address) {\n        return _owner;\n    }\n\n    /**\n     * @dev Throws if called by any account other than the owner.\n     */\n    modifier onlyOwner() {\n        require(_owner == _msgSender(), \"Ownable: caller is not the owner\");\n        _;\n    }\n\n    /**\n     * @dev Leaves the contract without owner. It will not be possible to call\n     * `onlyOwner` functions anymore. Can only be called by the current owner.\n     *\n     * NOTE: Renouncing ownership will leave the contract without an owner,\n     * thereby removing any functionality that is only available to the owner.\n     */\n    function renounceOwnership() public virtual onlyOwner {\n        emit OwnershipTransferred(_owner, address(0));\n        _owner = address(0);\n    }\n\n    /**\n     * @dev Transfers ownership of the contract to a new account (`newOwner`).\n     * Can only be called by the current owner.\n     */\n    function transferOwnership(address newOwner) public virtual onlyOwner {\n        require(newOwner != address(0), \"Ownable: new owner is the zero address\");\n        emit OwnershipTransferred(_owner, newOwner);\n        _owner = newOwner;\n    }\n\n    uint256[49] private __gap;\n}\n\n// File: contracts/INBUNIERC20.sol\n\npragma solidity ^0.6.0;\n\n/**\n * @dev Interface of the ERC20 standard as defined in the EIP.\n */\ninterface INBUNIERC20 {\n    /**\n     * @dev Returns the amount of tokens in existence.\n     */\n    function totalSupply() external view returns (uint256);\n\n    /**\n     * @dev Returns the amount of tokens owned by `account`.\n     */\n    function balanceOf(address account) external view returns (uint256);\n\n    /**\n     * @dev Moves `amount` tokens from the caller's account to `recipient`.\n     *\n     * Returns a boolean value indicating whether the operation succeeded.\n     *\n     * Emits a {Transfer} event.\n     */\n    function transfer(address recipient, uint256 amount) external returns (bool);\n\n    /**\n     * @dev Returns the remaining number of tokens that `spender` will be\n     * allowed to spend on behalf of `owner` through {transferFrom}. This is\n     * zero by default.\n     *\n     * This value changes when {approve} or {transferFrom} are called.\n     */\n    function allowance(address owner, address spender) external view returns (uint256);\n\n    /**\n     * @dev Sets `amount` as the allowance of `spender` over the caller's tokens.\n     *\n     * Returns a boolean value indicating whether the operation succeeded.\n     *\n     * IMPORTANT: Beware that changing an allowance with this method brings the risk\n     * that someone may use both the old and the new allowance by unfortunate\n     * transaction ordering. One possible solution to mitigate this race\n     * condition is to first reduce the spender's allowance to 0 and set the\n     * desired value afterwards:\n     * https://github.com/ethereum/EIPs/issues/20#issuecomment-263524729\n     *\n     * Emits an {Approval} event.\n     */\n    function approve(address spender, uint256 amount) external returns (bool);\n\n    /**\n     * @dev Moves `amount` tokens from `sender` to `recipient` using the\n     * allowance mechanism. `amount` is then deducted from the caller's\n     * allowance.\n     *\n     * Returns a boolean value indicating whether the operation succeeded.\n     *\n     * Emits a {Transfer} event.\n     */\n    function transferFrom(address sender, address recipient, uint256 amount) external returns (bool);\n\n    /**\n     * @dev Emitted when `value` tokens are moved from one account (`from`) to\n     * another (`to`).\n     *\n     * Note that `value` may be zero.\n     */\n    event Transfer(address indexed from, address indexed to, uint256 value);\n\n    /**\n     * @dev Emitted when the allowance of a `spender` for an `owner` is set by\n     * a call to {approve}. `value` is the new allowance.\n     */\n    event Approval(address indexed owner, address indexed spender, uint256 value);\n\n\n    event Log(string log);\n\n}\n\n// File: contracts/CoreVault.sol\n\npragma solidity 0.6.12;\n\n\n\n\n\n\n\n// Core Vault distributes fees equally amongst staked pools\n// Have fun reading it. Hopefully it's bug-free. God bless.\ncontract CoreVault is OwnableUpgradeSafe {\n    using SafeMath for uint256;\n    using SafeERC20 for IERC20;\n\n    // Info of each user.\n    struct UserInfo {\n        uint256 amount; // How many  tokens the user has provided.\n        uint256 rewardDebt; // Reward debt. See explanation below.\n        //\n        // We do some fancy math here. Basically, any point in time, the amount of COREs\n        // entitled to a user but is pending to be distributed is:\n        //\n        //   pending reward = (user.amount * pool.accCorePerShare) - user.rewardDebt\n        //\n        // Whenever a user deposits or withdraws  tokens to a pool. Here's what happens:\n        //   1. The pool's `accCorePerShare` (and `lastRewardBlock`) gets updated.\n        //   2. User receives the pending reward sent to his/her address.\n        //   3. User's `amount` gets updated.\n        //   4. User's `rewardDebt` gets updated.\n\n    }\n\n    // Info of each pool.\n    struct PoolInfo {\n        IERC20 token; // Address of  token contract.\n        uint256 allocPoint; // How many allocation points assigned to this pool. COREs to distribute per block.\n        uint256 accCorePerShare; // Accumulated COREs per share, times 1e12. See below.\n        bool withdrawable; // Is this pool withdrawable?\n        mapping(address => mapping(address => uint256)) allowance;\n\n    }\n\n    // The CORE TOKEN!\n    INBUNIERC20 public core;\n    // Dev address.\n    address public devaddr;\n\n    // Info of each pool.\n    PoolInfo[] public poolInfo;\n    // Info of each user that stakes  tokens.\n    mapping(uint256 => mapping(address => UserInfo)) public userInfo;\n    // Total allocation poitns. Must be the sum of all allocation points in all pools.\n    uint256 public totalAllocPoint;\n\n    //// pending rewards awaiting anyone to massUpdate\n    uint256 public pendingRewards;\n\n    uint256 public contractStartBlock;\n    uint256 public epochCalculationStartBlock;\n    uint256 public cumulativeRewardsSinceStart;\n    uint256 public rewardsInThisEpoch;\n    uint public epoch;\n\n    // Returns fees generated since start of this contract\n    function averageFeesPerBlockSinceStart() external view returns (uint averagePerBlock) {\n        averagePerBlock = cumulativeRewardsSinceStart.add(rewardsInThisEpoch).div(block.number.sub(contractStartBlock));\n    }        \n\n    // Returns averge fees in this epoch\n    function averageFeesPerBlockEpoch() external view returns (uint256 averagePerBlock) {\n        averagePerBlock = rewardsInThisEpoch.div(block.number.sub(epochCalculationStartBlock));\n    }\n\n    // For easy graphing historical epoch rewards\n    mapping(uint => uint256) public epochRewards;\n\n    //Starts a new calculation epoch\n    // Because averge since start will not be accurate\n    function startNewEpoch() public {\n        require(epochCalculationStartBlock + 50000 < block.number, \"New epoch not ready yet\"); // About a week\n        epochRewards[epoch] = rewardsInThisEpoch;\n        cumulativeRewardsSinceStart = cumulativeRewardsSinceStart.add(rewardsInThisEpoch);\n        rewardsInThisEpoch = 0;\n        epochCalculationStartBlock = block.number;\n        ++epoch;\n    }\n\n    event Deposit(address indexed user, uint256 indexed pid, uint256 amount);\n    event Withdraw(address indexed user, uint256 indexed pid, uint256 amount);\n    event EmergencyWithdraw(\n        address indexed user,\n        uint256 indexed pid,\n        uint256 amount\n    );\n    event Approval(address indexed owner, address indexed spender, uint256 _pid, uint256 value);\n\n\n    function initialize(\n        INBUNIERC20 _core,\n        address _devaddr, \n        address superAdmin\n    ) public initializer {\n        OwnableUpgradeSafe.__Ownable_init();\n        DEV_FEE = 724;\n        core = _core;\n        devaddr = _devaddr;\n        contractStartBlock = block.number;\n        _superAdmin = superAdmin;\n    }\n\n    function poolLength() external view returns (uint256) {\n        return poolInfo.length;\n    }\n\n\n\n    // Add a new token pool. Can only be called by the owner. \n    // Note contract owner is meant to be a governance contract allowing CORE governance consensus\n    function add(\n        uint256 _allocPoint,\n        IERC20 _token,\n        bool _withUpdate,\n        bool _withdrawable\n    ) public onlyOwner {\n        if (_withUpdate) {\n            massUpdatePools();\n        }\n\n        uint256 length = poolInfo.length;\n        for (uint256 pid = 0; pid < length; ++pid) {\n            require(poolInfo[pid].token != _token,\"Error pool already added\");\n        }\n\n        totalAllocPoint = totalAllocPoint.add(_allocPoint);\n\n\n        poolInfo.push(\n            PoolInfo({\n                token: _token,\n                allocPoint: _allocPoint,\n                accCorePerShare: 0,\n                withdrawable : _withdrawable\n            })\n        );\n    }\n\n    // Update the given pool's COREs allocation point. Can only be called by the owner.\n        // Note contract owner is meant to be a governance contract allowing CORE governance consensus\n\n    function set(\n        uint256 _pid,\n        uint256 _allocPoint,\n        bool _withUpdate\n    ) public onlyOwner {\n        if (_withUpdate) {\n            massUpdatePools();\n        }\n        \n        totalAllocPoint = totalAllocPoint.sub(poolInfo[_pid].allocPoint).add(\n            _allocPoint\n        );\n        poolInfo[_pid].allocPoint = _allocPoint;\n    }\n\n    // Update the given pool's ability to withdraw tokens\n    // Note contract owner is meant to be a governance contract allowing CORE governance consensus\n    function setPoolWithdrawable(\n        uint256 _pid,\n        bool _withdrawable\n    ) public onlyOwner {\n        poolInfo[_pid].withdrawable = _withdrawable;\n    }\n\n\n\n    // Sets the dev fee for this contract\n    // defaults at 7.24%\n    // Note contract owner is meant to be a governance contract allowing CORE governance consensus\n    uint16 DEV_FEE;\n    function setDevFee(uint16 _DEV_FEE) public onlyOwner {\n        require(_DEV_FEE <= 1000, 'Dev fee clamped at 10%');\n        DEV_FEE = _DEV_FEE;\n    }\n    uint256 pending_DEV_rewards;\n\n\n    // View function to see pending COREs on frontend.\n    function pendingCore(uint256 _pid, address _user)\n        external\n        view\n        returns (uint256)\n    {\n        PoolInfo storage pool = poolInfo[_pid];\n        UserInfo storage user = userInfo[_pid][_user];\n        uint256 accCorePerShare = pool.accCorePerShare;\n\n        return user.amount.mul(accCorePerShare).div(1e12).sub(user.rewardDebt);\n    }\n\n    // Update reward vairables for all pools. Be careful of gas spending!\n    function massUpdatePools() public {\n        uint256 length = poolInfo.length;\n        uint allRewards;\n        for (uint256 pid = 0; pid < length; ++pid) {\n            allRewards = allRewards.add(updatePool(pid));\n        }\n\n        pendingRewards = pendingRewards.sub(allRewards);\n    }\n\n    // ----\n    // Function that adds pending rewards, called by the CORE token.\n    // ----\n    uint256 private coreBalance;\n    function addPendingRewards(uint256 _) public {\n        uint256 newRewards = core.balanceOf(address(this)).sub(coreBalance);\n        \n        if(newRewards > 0) {\n            coreBalance = core.balanceOf(address(this)); // If there is no change the balance didn't change\n            pendingRewards = pendingRewards.add(newRewards);\n            rewardsInThisEpoch = rewardsInThisEpoch.add(newRewards);\n        }\n    }\n\n    // Update reward variables of the given pool to be up-to-date.\n    function updatePool(uint256 _pid) internal returns (uint256 coreRewardWhole) {\n        PoolInfo storage pool = poolInfo[_pid];\n\n        uint256 tokenSupply = pool.token.balanceOf(address(this));\n        if (tokenSupply == 0) { // avoids division by 0 errors\n            return 0;\n        }\n        coreRewardWhole = pendingRewards // Multiplies pending rewards by allocation point of this pool and then total allocation\n            .mul(pool.allocPoint)        // getting the percent of total pending rewards this pool should get\n            .div(totalAllocPoint);       // we can do this because pools are only mass updated\n        uint256 coreRewardFee = coreRewardWhole.mul(DEV_FEE).div(10000);\n        uint256 coreRewardToDistribute = coreRewardWhole.sub(coreRewardFee);\n\n        pending_DEV_rewards = pending_DEV_rewards.add(coreRewardFee);\n\n        pool.accCorePerShare = pool.accCorePerShare.add(\n            coreRewardToDistribute.mul(1e12).div(tokenSupply)\n        );\n\n    }\n\n    // Deposit  tokens to CoreVault for CORE allocation.\n    function deposit(uint256 _pid, uint256 _amount) public {\n\n        PoolInfo storage pool = poolInfo[_pid];\n        UserInfo storage user = userInfo[_pid][msg.sender];\n\n        massUpdatePools();\n        \n        // Transfer pending tokens\n        // to user\n        updateAndPayOutPending(_pid, pool, user, msg.sender);\n\n\n        //Transfer in the amounts from user\n        // save gas\n        if(_amount > 0) {\n            pool.token.safeTransferFrom(address(msg.sender), address(this), _amount);\n            user.amount = user.amount.add(_amount);\n        }\n\n        user.rewardDebt = user.amount.mul(pool.accCorePerShare).div(1e12);\n        emit Deposit(msg.sender, _pid, _amount);\n    }\n\n    // Test coverage\n    // [x] Does user get the deposited amounts?\n    // [x] Does user that its deposited for update correcty?\n    // [x] Does the depositor get their tokens decreased\n    function depositFor(address depositFor, uint256 _pid, uint256 _amount) public {\n        // requires no allowances\n        PoolInfo storage pool = poolInfo[_pid];\n        UserInfo storage user = userInfo[_pid][depositFor];\n\n        massUpdatePools();\n        \n        // Transfer pending tokens\n        // to user\n        updateAndPayOutPending(_pid, pool, user, depositFor); // Update the balances of person that amount is being deposited for\n\n        if(_amount > 0) {\n            pool.token.safeTransferFrom(address(msg.sender), address(this), _amount);\n            user.amount = user.amount.add(_amount); // This is depositedFor address\n        }\n\n        user.rewardDebt = user.amount.mul(pool.accCorePerShare).div(1e12); /// This is deposited for address\n        emit Deposit(depositFor, _pid, _amount);\n\n    }\n\n    // Test coverage\n    // [x] Does allowance update correctly?\n    function setAllowanceForPoolToken(address spender, uint256 _pid, uint256 value) public {\n        PoolInfo storage pool = poolInfo[_pid];\n        pool.allowance[msg.sender][spender] = value;\n        emit Approval(msg.sender, spender, _pid, value);\n    }\n\n    // Test coverage\n    // [x] Does allowance decrease?\n    // [x] Do oyu need allowance\n    // [x] Withdraws to correct address\n    function withdrawFrom(address owner, uint256 _pid, uint256 _amount) public{\n        \n        PoolInfo storage pool = poolInfo[_pid];\n        require(pool.allowance[owner][msg.sender] >= _amount, \"withdraw: insufficient allowance\");\n        pool.allowance[owner][msg.sender] = pool.allowance[owner][msg.sender].sub(_amount);\n        _withdraw(_pid, _amount, owner, msg.sender);\n\n    }\n    \n\n    // Withdraw  tokens from CoreVault.\n    function withdraw(uint256 _pid, uint256 _amount) public {\n\n        _withdraw(_pid, _amount, msg.sender, msg.sender);\n\n    }\n\n\n    \n\n    // Low level withdraw function\n    function _withdraw(uint256 _pid, uint256 _amount, address from, address to) internal {\n        PoolInfo storage pool = poolInfo[_pid];\n        require(pool.withdrawable, \"Withdrawing from this pool is disabled\");\n        UserInfo storage user = userInfo[_pid][from];\n        require(user.amount >= _amount, \"withdraw: not good\");\n\n        massUpdatePools();\n        updateAndPayOutPending(_pid,  pool, user, from); // Update balances of from this is not withdrawal but claiming CORE farmed\n\n        if(_amount > 0) {\n            user.amount = user.amount.sub(_amount);\n            pool.token.safeTransfer(address(to), _amount);\n        }\n        user.rewardDebt = user.amount.mul(pool.accCorePerShare).div(1e12);\n\n        emit Withdraw(to, _pid, _amount);\n    }\n\n    function updateAndPayOutPending(uint256 _pid, PoolInfo storage pool, UserInfo storage user, address from) internal {\n        \n        if(user.amount == 0) return;\n\n        uint256 pending = user\n            .amount\n            .mul(pool.accCorePerShare)\n            .div(1e12)\n            .sub(user.rewardDebt);\n\n        if(pending > 0) {\n            safeCoreTransfer(from, pending);\n        }\n\n    }\n\n    // function that lets owner/governance contract\n    // approve allowance for any token inside this contract\n    // This means all future UNI like airdrops are covered\n    // And at the same time allows us to give allowance to strategy contracts.\n    // Upcoming cYFI etc vaults strategy contracts will  se this function to manage and farm yield on value locked\n    function setStrategyContractOrDistributionContractAllowance(address tokenAddress, uint256 _amount, address contractAddress) public onlySuperAdmin {\n        require(isContract(contractAddress), \"Recipent is not a smart contract, BAD\");\n        require(block.number > contractStartBlock.add(95_000), \"Governance setup grace period not over\"); // about 2weeks\n        IERC20(tokenAddress).approve(contractAddress, _amount);\n    }\n\n    function isContract(address addr) public returns (bool) {\n        uint size;\n        assembly { size := extcodesize(addr) }\n        return size > 0;\n    }\n\n\n\n\n\n    // Withdraw without caring about rewards. EMERGENCY ONLY.\n    // !Caution this will remove all your pending rewards!\n    function emergencyWithdraw(uint256 _pid) public {\n        PoolInfo storage pool = poolInfo[_pid];\n        require(pool.withdrawable, \"Withdrawing from this pool is disabled\");\n        UserInfo storage user = userInfo[_pid][msg.sender];\n        pool.token.safeTransfer(address(msg.sender), user.amount);\n        emit EmergencyWithdraw(msg.sender, _pid, user.amount);\n        user.amount = 0;\n        user.rewardDebt = 0;\n        // No mass update dont update pending rewards\n    }\n\n    // Safe core transfer function, just in case if rounding error causes pool to not have enough COREs.\n    function safeCoreTransfer(address _to, uint256 _amount) internal {\n        if(_amount == 0) return; \n\n        uint256 coreBal = core.balanceOf(address(this));\n        if (_amount > coreBal) {\n\n            core.transfer(_to, coreBal);\n            coreBalance = core.balanceOf(address(this));\n\n        } else {\n            core.transfer(_to, _amount);\n            coreBalance = core.balanceOf(address(this));\n\n        }\n\n        if(pending_DEV_rewards > 0) {\n            uint256 devSend = pending_DEV_rewards; // Avoid recursive loop\n            pending_DEV_rewards = 0;\n            safeCoreTransfer(devaddr, devSend);\n        }\n\n    }\n\n    // Update dev address by the previous dev.\n    // Note onlyOwner functions are meant for the governance contract\n    // allowing CORE governance token holders to do this functions.\n    function setDevFeeReciever(address _devaddr) public onlyOwner {\n        devaddr = _devaddr;\n    }\n\n\n\n    address private _superAdmin;\n\n    event SuperAdminTransfered(address indexed previousOwner, address indexed newOwner);\n\n\n\n    /**\n     * @dev Returns the address of the current super admin\n     */\n    function superAdmin() public view returns (address) {\n        return _superAdmin;\n    }\n\n    /**\n     * @dev Throws if called by any account other than the superAdmin\n     */\n    modifier onlySuperAdmin() {\n        require(_superAdmin == _msgSender(), \"Super admin : caller is not super admin.\");\n        _;\n    }\n\n    // Assisns super admint to address 0, making it unreachable forever\n    function burnSuperAdmin() public virtual onlySuperAdmin {\n        emit SuperAdminTransfered(_superAdmin, address(0));\n        _superAdmin = address(0);\n    }\n\n    // Super admin can transfer its powers to another address\n    function newSuperAdmin(address newOwner) public virtual onlySuperAdmin {\n        require(newOwner != address(0), \"Ownable: new owner is the zero address\");\n        emit SuperAdminTransfered(_superAdmin, newOwner);\n        _superAdmin = newOwner;\n    }\n}\n",
  "sourcePath": "/Users/x3/dev/YFLOCK-v1-core/oz/contracts/CoreVault.sol",
  "compiler": {
    "name": "solc",
    "version": "0.6.12+commit.27d51765.Emscripten.clang"
  },
  "schemaVersion": "3.2.5",
  "updatedAt": "2020-09-26T03:33:16.595Z",
  "devdoc": {
    "kind": "dev",
    "methods": {
      "owner()": {
        "details": "Returns the address of the current owner."
      },
      "renounceOwnership()": {
        "details": "Leaves the contract without owner. It will not be possible to call `onlyOwner` functions anymore. Can only be called by the current owner. NOTE: Renouncing ownership will leave the contract without an owner, thereby removing any functionality that is only available to the owner."
      },
      "superAdmin()": {
        "details": "Returns the address of the current super admin"
      },
      "transferOwnership(address)": {
        "details": "Transfers ownership of the contract to a new account (`newOwner`). Can only be called by the current owner."
      }
    },
    "version": 1
  },
  "userdoc": {
    "kind": "user",
    "methods": {},
    "version": 1
  }
}