{
  "contractName": "ProxyAdmin",
  "abi": [
    {
      "constant": false,
      "inputs": [],
      "name": "renounceOwnership",
      "outputs": [],
      "payable": false,
      "stateMutability": "nonpayable",
      "type": "function"
    },
    {
      "constant": true,
      "inputs": [],
      "name": "owner",
      "outputs": [
        {
          "name": "",
          "type": "address"
        }
      ],
      "payable": false,
      "stateMutability": "view",
      "type": "function"
    },
    {
      "constant": true,
      "inputs": [],
      "name": "isOwner",
      "outputs": [
        {
          "name": "",
          "type": "bool"
        }
      ],
      "payable": false,
      "stateMutability": "view",
      "type": "function"
    },
    {
      "constant": false,
      "inputs": [
        {
          "name": "newOwner",
          "type": "address"
        }
      ],
      "name": "transferOwnership",
      "outputs": [],
      "payable": false,
      "stateMutability": "nonpayable",
      "type": "function"
    },
    {
      "anonymous": false,
      "inputs": [
        {
          "indexed": true,
          "name": "previousOwner",
          "type": "address"
        },
        {
          "indexed": true,
          "name": "newOwner",
          "type": "address"
        }
      ],
      "name": "OwnershipTransferred",
      "type": "event"
    },
    {
      "constant": true,
      "inputs": [
        {
          "name": "proxy",
          "type": "address"
        }
      ],
      "name": "getProxyImplementation",
      "outputs": [
        {
          "name": "",
          "type": "address"
        }
      ],
      "payable": false,
      "stateMutability": "view",
      "type": "function"
    },
    {
      "constant": true,
      "inputs": [
        {
          "name": "proxy",
          "type": "address"
        }
      ],
      "name": "getProxyAdmin",
      "outputs": [
        {
          "name": "",
          "type": "address"
        }
      ],
      "payable": false,
      "stateMutability": "view",
      "type": "function"
    },
    {
      "constant": false,
      "inputs": [
        {
          "name": "proxy",
          "type": "address"
        },
        {
          "name": "newAdmin",
          "type": "address"
        }
      ],
      "name": "changeProxyAdmin",
      "outputs": [],
      "payable": false,
      "stateMutability": "nonpayable",
      "type": "function"
    },
    {
      "constant": false,
      "inputs": [
        {
          "name": "proxy",
          "type": "address"
        },
        {
          "name": "implementation",
          "type": "address"
        }
      ],
      "name": "upgrade",
      "outputs": [],
      "payable": false,
      "stateMutability": "nonpayable",
      "type": "function"
    },
    {
      "constant": false,
      "inputs": [
        {
          "name": "proxy",
          "type": "address"
        },
        {
          "name": "implementation",
          "type": "address"
        },
        {
          "name": "data",
          "type": "bytes"
        }
      ],
      "name": "upgradeAndCall",
      "outputs": [],
      "payable": true,
      "stateMutability": "payable",
      "type": "function"
    }
  ],
  "bytecode": "0x6080604081905260008054600160a060020a0319163317808255600160a060020a0316917f8be0079c531659141344cd1fd0a4f28419497f9722a3daafe3b4186f6b6457e0908290a3610733806100576000396000f3fe60806040526004361061008a5760003560e060020a900480638f32d59b1161005d5780638f32d59b146101455780639623609d1461016e57806399a88ec41461022d578063f2fde38b14610268578063f3b7dead1461029b5761008a565b8063204e1c7a1461008f578063715018a6146100de5780637eff275e146100f55780638da5cb5b14610130575b600080fd5b34801561009b57600080fd5b506100c2600480360360208110156100b257600080fd5b5035600160a060020a03166102ce565b60408051600160a060020a039092168252519081900360200190f35b3480156100ea57600080fd5b506100f361037b565b005b34801561010157600080fd5b506100f36004803603604081101561011857600080fd5b50600160a060020a03813581169160200135166103e5565b34801561013c57600080fd5b506100c261046f565b34801561015157600080fd5b5061015a61047e565b604080519115158252519081900360200190f35b6100f36004803603606081101561018457600080fd5b600160a060020a0382358116926020810135909116918101906060810160408201356401000000008111156101b857600080fd5b8201836020820111156101ca57600080fd5b803590602001918460018302840111640100000000831117156101ec57600080fd5b91908080601f01602080910402602001604051908101604052809392919081815260200183838082843760009201919091525092955061048f945050505050565b34801561023957600080fd5b506100f36004803603604081101561025057600080fd5b50600160a060020a0381358116916020013516610585565b34801561027457600080fd5b506100f36004803603602081101561028b57600080fd5b5035600160a060020a03166105f3565b3480156102a757600080fd5b506100c2600480360360208110156102be57600080fd5b5035600160a060020a0316610612565b600080606083600160a060020a031660405180807f5c60da1b000000000000000000000000000000000000000000000000000000008152506004019050600060405180830381855afa9150503d8060008114610346576040519150601f19603f3d011682016040523d82523d6000602084013e61034b565b606091505b509150915081151561035c57600080fd5b80806020019051602081101561037157600080fd5b5051949350505050565b61038361047e565b151561038e57600080fd5b60008054604051600160a060020a03909116907f8be0079c531659141344cd1fd0a4f28419497f9722a3daafe3b4186f6b6457e0908390a36000805473ffffffffffffffffffffffffffffffffffffffff19169055565b6103ed61047e565b15156103f857600080fd5b81600160a060020a0316638f283970826040518263ffffffff1660e060020a0281526004018082600160a060020a0316600160a060020a03168152602001915050600060405180830381600087803b15801561045357600080fd5b505af1158015610467573d6000803e3d6000fd5b505050505050565b600054600160a060020a031690565b600054600160a060020a0316331490565b61049761047e565b15156104a257600080fd5b82600160a060020a0316634f1ef2863484846040518463ffffffff1660e060020a0281526004018083600160a060020a0316600160a060020a0316815260200180602001828103825283818151815260200191508051906020019080838360005b8381101561051b578181015183820152602001610503565b50505050905090810190601f1680156105485780820380516001836020036101000a031916815260200191505b5093505050506000604051808303818588803b15801561056757600080fd5b505af115801561057b573d6000803e3d6000fd5b5050505050505050565b61058d61047e565b151561059857600080fd5b81600160a060020a0316633659cfe6826040518263ffffffff1660e060020a0281526004018082600160a060020a0316600160a060020a03168152602001915050600060405180830381600087803b15801561045357600080fd5b6105fb61047e565b151561060657600080fd5b61060f8161068a565b50565b600080606083600160a060020a031660405180807ff851a440000000000000000000000000000000000000000000000000000000008152506004019050600060405180830381855afa9150503d8060008114610346576040519150601f19603f3d011682016040523d82523d6000602084013e61034b565b600160a060020a038116151561069f57600080fd5b60008054604051600160a060020a03808516939216917f8be0079c531659141344cd1fd0a4f28419497f9722a3daafe3b4186f6b6457e091a36000805473ffffffffffffffffffffffffffffffffffffffff1916600160a060020a039290921691909117905556fea165627a7a72305820c3cdfa723f7070ef41f3fa2b17c15e208cfa17a72674ebe0bbf24748f6e958740029",
  "source": "// File: @openzeppelin/upgrades/contracts/ownership/Ownable.sol\n\npragma solidity ^0.5.0;\n\n/**\n * @title Ownable\n * @dev The Ownable contract has an owner address, and provides basic authorization control\n * functions, this simplifies the implementation of \"user permissions\".\n *\n * Source https://raw.githubusercontent.com/OpenZeppelin/openzeppelin-solidity/v2.1.3/contracts/ownership/Ownable.sol\n * This contract is copied here and renamed from the original to avoid clashes in the compiled artifacts\n * when the user imports a zos-lib contract (that transitively causes this contract to be compiled and added to the\n * build/artifacts folder) as well as the vanilla Ownable implementation from an openzeppelin version.\n */\ncontract OpenZeppelinUpgradesOwnable {\n    address private _owner;\n\n    event OwnershipTransferred(address indexed previousOwner, address indexed newOwner);\n\n    /**\n     * @dev The Ownable constructor sets the original `owner` of the contract to the sender\n     * account.\n     */\n    constructor () internal {\n        _owner = msg.sender;\n        emit OwnershipTransferred(address(0), _owner);\n    }\n\n    /**\n     * @return the address of the owner.\n     */\n    function owner() public view returns (address) {\n        return _owner;\n    }\n\n    /**\n     * @dev Throws if called by any account other than the owner.\n     */\n    modifier onlyOwner() {\n        require(isOwner());\n        _;\n    }\n\n    /**\n     * @return true if `msg.sender` is the owner of the contract.\n     */\n    function isOwner() public view returns (bool) {\n        return msg.sender == _owner;\n    }\n\n    /**\n     * @dev Allows the current owner to relinquish control of the contract.\n     * @notice Renouncing to ownership will leave the contract without an owner.\n     * It will not be possible to call the functions with the `onlyOwner`\n     * modifier anymore.\n     */\n    function renounceOwnership() public onlyOwner {\n        emit OwnershipTransferred(_owner, address(0));\n        _owner = address(0);\n    }\n\n    /**\n     * @dev Allows the current owner to transfer control of the contract to a newOwner.\n     * @param newOwner The address to transfer ownership to.\n     */\n    function transferOwnership(address newOwner) public onlyOwner {\n        _transferOwnership(newOwner);\n    }\n\n    /**\n     * @dev Transfers control of the contract to a newOwner.\n     * @param newOwner The address to transfer ownership to.\n     */\n    function _transferOwnership(address newOwner) internal {\n        require(newOwner != address(0));\n        emit OwnershipTransferred(_owner, newOwner);\n        _owner = newOwner;\n    }\n}\n\n// File: @openzeppelin/upgrades/contracts/upgradeability/Proxy.sol\n\npragma solidity ^0.5.0;\n\n/**\n * @title Proxy\n * @dev Implements delegation of calls to other contracts, with proper\n * forwarding of return values and bubbling of failures.\n * It defines a fallback function that delegates all calls to the address\n * returned by the abstract _implementation() internal function.\n */\ncontract Proxy {\n  /**\n   * @dev Fallback function.\n   * Implemented entirely in `_fallback`.\n   */\n  function () payable external {\n    _fallback();\n  }\n\n  /**\n   * @return The Address of the implementation.\n   */\n  function _implementation() internal view returns (address);\n\n  /**\n   * @dev Delegates execution to an implementation contract.\n   * This is a low level function that doesn't return to its internal call site.\n   * It will return to the external caller whatever the implementation returns.\n   * @param implementation Address to delegate.\n   */\n  function _delegate(address implementation) internal {\n    assembly {\n      // Copy msg.data. We take full control of memory in this inline assembly\n      // block because it will not return to Solidity code. We overwrite the\n      // Solidity scratch pad at memory position 0.\n      calldatacopy(0, 0, calldatasize)\n\n      // Call the implementation.\n      // out and outsize are 0 because we don't know the size yet.\n      let result := delegatecall(gas, implementation, 0, calldatasize, 0, 0)\n\n      // Copy the returned data.\n      returndatacopy(0, 0, returndatasize)\n\n      switch result\n      // delegatecall returns 0 on error.\n      case 0 { revert(0, returndatasize) }\n      default { return(0, returndatasize) }\n    }\n  }\n\n  /**\n   * @dev Function that is run as the first thing in the fallback function.\n   * Can be redefined in derived contracts to add functionality.\n   * Redefinitions must call super._willFallback().\n   */\n  function _willFallback() internal {\n  }\n\n  /**\n   * @dev fallback implementation.\n   * Extracted to enable manual triggering.\n   */\n  function _fallback() internal {\n    _willFallback();\n    _delegate(_implementation());\n  }\n}\n\n// File: @openzeppelin/upgrades/contracts/utils/Address.sol\n\npragma solidity ^0.5.0;\n\n/**\n * Utility library of inline functions on addresses\n *\n * Source https://raw.githubusercontent.com/OpenZeppelin/openzeppelin-solidity/v2.1.3/contracts/utils/Address.sol\n * This contract is copied here and renamed from the original to avoid clashes in the compiled artifacts\n * when the user imports a zos-lib contract (that transitively causes this contract to be compiled and added to the\n * build/artifacts folder) as well as the vanilla Address implementation from an openzeppelin version.\n */\nlibrary OpenZeppelinUpgradesAddress {\n    /**\n     * Returns whether the target address is a contract\n     * @dev This function will return false if invoked during the constructor of a contract,\n     * as the code is not actually created until after the constructor finishes.\n     * @param account address of the account to check\n     * @return whether the target address is a contract\n     */\n    function isContract(address account) internal view returns (bool) {\n        uint256 size;\n        // XXX Currently there is no better way to check if there is a contract in an address\n        // than to check the size of the code at that address.\n        // See https://ethereum.stackexchange.com/a/14016/36603\n        // for more details about how this works.\n        // TODO Check this again before the Serenity release, because all addresses will be\n        // contracts then.\n        // solhint-disable-next-line no-inline-assembly\n        assembly { size := extcodesize(account) }\n        return size > 0;\n    }\n}\n\n// File: @openzeppelin/upgrades/contracts/upgradeability/BaseUpgradeabilityProxy.sol\n\npragma solidity ^0.5.0;\n\n\n\n/**\n * @title BaseUpgradeabilityProxy\n * @dev This contract implements a proxy that allows to change the\n * implementation address to which it will delegate.\n * Such a change is called an implementation upgrade.\n */\ncontract BaseUpgradeabilityProxy is Proxy {\n  /**\n   * @dev Emitted when the implementation is upgraded.\n   * @param implementation Address of the new implementation.\n   */\n  event Upgraded(address indexed implementation);\n\n  /**\n   * @dev Storage slot with the address of the current implementation.\n   * This is the keccak-256 hash of \"eip1967.proxy.implementation\" subtracted by 1, and is\n   * validated in the constructor.\n   */\n  bytes32 internal constant IMPLEMENTATION_SLOT = 0x360894a13ba1a3210667c828492db98dca3e2076cc3735a920a3ca505d382bbc;\n\n  /**\n   * @dev Returns the current implementation.\n   * @return Address of the current implementation\n   */\n  function _implementation() internal view returns (address impl) {\n    bytes32 slot = IMPLEMENTATION_SLOT;\n    assembly {\n      impl := sload(slot)\n    }\n  }\n\n  /**\n   * @dev Upgrades the proxy to a new implementation.\n   * @param newImplementation Address of the new implementation.\n   */\n  function _upgradeTo(address newImplementation) internal {\n    _setImplementation(newImplementation);\n    emit Upgraded(newImplementation);\n  }\n\n  /**\n   * @dev Sets the implementation address of the proxy.\n   * @param newImplementation Address of the new implementation.\n   */\n  function _setImplementation(address newImplementation) internal {\n    require(OpenZeppelinUpgradesAddress.isContract(newImplementation), \"Cannot set a proxy implementation to a non-contract address\");\n\n    bytes32 slot = IMPLEMENTATION_SLOT;\n\n    assembly {\n      sstore(slot, newImplementation)\n    }\n  }\n}\n\n// File: @openzeppelin/upgrades/contracts/upgradeability/UpgradeabilityProxy.sol\n\npragma solidity ^0.5.0;\n\n\n/**\n * @title UpgradeabilityProxy\n * @dev Extends BaseUpgradeabilityProxy with a constructor for initializing\n * implementation and init data.\n */\ncontract UpgradeabilityProxy is BaseUpgradeabilityProxy {\n  /**\n   * @dev Contract constructor.\n   * @param _logic Address of the initial implementation.\n   * @param _data Data to send as msg.data to the implementation to initialize the proxied contract.\n   * It should include the signature and the parameters of the function to be called, as described in\n   * https://solidity.readthedocs.io/en/v0.4.24/abi-spec.html#function-selector-and-argument-encoding.\n   * This parameter is optional, if no data is given the initialization call to proxied contract will be skipped.\n   */\n  constructor(address _logic, bytes memory _data) public payable {\n    assert(IMPLEMENTATION_SLOT == bytes32(uint256(keccak256('eip1967.proxy.implementation')) - 1));\n    _setImplementation(_logic);\n    if(_data.length > 0) {\n      (bool success,) = _logic.delegatecall(_data);\n      require(success);\n    }\n  }  \n}\n\n// File: @openzeppelin/upgrades/contracts/upgradeability/BaseAdminUpgradeabilityProxy.sol\n\npragma solidity ^0.5.0;\n\n\n/**\n * @title BaseAdminUpgradeabilityProxy\n * @dev This contract combines an upgradeability proxy with an authorization\n * mechanism for administrative tasks.\n * All external functions in this contract must be guarded by the\n * `ifAdmin` modifier. See ethereum/solidity#3864 for a Solidity\n * feature proposal that would enable this to be done automatically.\n */\ncontract BaseAdminUpgradeabilityProxy is BaseUpgradeabilityProxy {\n  /**\n   * @dev Emitted when the administration has been transferred.\n   * @param previousAdmin Address of the previous admin.\n   * @param newAdmin Address of the new admin.\n   */\n  event AdminChanged(address previousAdmin, address newAdmin);\n\n  /**\n   * @dev Storage slot with the admin of the contract.\n   * This is the keccak-256 hash of \"eip1967.proxy.admin\" subtracted by 1, and is\n   * validated in the constructor.\n   */\n\n  bytes32 internal constant ADMIN_SLOT = 0xb53127684a568b3173ae13b9f8a6016e243e63b6e8ee1178d6a717850b5d6103;\n\n  /**\n   * @dev Modifier to check whether the `msg.sender` is the admin.\n   * If it is, it will run the function. Otherwise, it will delegate the call\n   * to the implementation.\n   */\n  modifier ifAdmin() {\n    if (msg.sender == _admin()) {\n      _;\n    } else {\n      _fallback();\n    }\n  }\n\n  /**\n   * @return The address of the proxy admin.\n   */\n  function admin() external ifAdmin returns (address) {\n    return _admin();\n  }\n\n  /**\n   * @return The address of the implementation.\n   */\n  function implementation() external ifAdmin returns (address) {\n    return _implementation();\n  }\n\n  /**\n   * @dev Changes the admin of the proxy.\n   * Only the current admin can call this function.\n   * @param newAdmin Address to transfer proxy administration to.\n   */\n  function changeAdmin(address newAdmin) external ifAdmin {\n    require(newAdmin != address(0), \"Cannot change the admin of a proxy to the zero address\");\n    emit AdminChanged(_admin(), newAdmin);\n    _setAdmin(newAdmin);\n  }\n\n  /**\n   * @dev Upgrade the backing implementation of the proxy.\n   * Only the admin can call this function.\n   * @param newImplementation Address of the new implementation.\n   */\n  function upgradeTo(address newImplementation) external ifAdmin {\n    _upgradeTo(newImplementation);\n  }\n\n  /**\n   * @dev Upgrade the backing implementation of the proxy and call a function\n   * on the new implementation.\n   * This is useful to initialize the proxied contract.\n   * @param newImplementation Address of the new implementation.\n   * @param data Data to send as msg.data in the low level call.\n   * It should include the signature and the parameters of the function to be called, as described in\n   * https://solidity.readthedocs.io/en/v0.4.24/abi-spec.html#function-selector-and-argument-encoding.\n   */\n  function upgradeToAndCall(address newImplementation, bytes calldata data) payable external ifAdmin {\n    _upgradeTo(newImplementation);\n    (bool success,) = newImplementation.delegatecall(data);\n    require(success);\n  }\n\n  /**\n   * @return The admin slot.\n   */\n  function _admin() internal view returns (address adm) {\n    bytes32 slot = ADMIN_SLOT;\n    assembly {\n      adm := sload(slot)\n    }\n  }\n\n  /**\n   * @dev Sets the address of the proxy admin.\n   * @param newAdmin Address of the new proxy admin.\n   */\n  function _setAdmin(address newAdmin) internal {\n    bytes32 slot = ADMIN_SLOT;\n\n    assembly {\n      sstore(slot, newAdmin)\n    }\n  }\n\n  /**\n   * @dev Only fall back when the sender is not the admin.\n   */\n  function _willFallback() internal {\n    require(msg.sender != _admin(), \"Cannot call fallback function from the proxy admin\");\n    super._willFallback();\n  }\n}\n\n// File: @openzeppelin/upgrades/contracts/upgradeability/AdminUpgradeabilityProxy.sol\n\npragma solidity ^0.5.0;\n\n\n/**\n * @title AdminUpgradeabilityProxy\n * @dev Extends from BaseAdminUpgradeabilityProxy with a constructor for \n * initializing the implementation, admin, and init data.\n */\ncontract AdminUpgradeabilityProxy is BaseAdminUpgradeabilityProxy, UpgradeabilityProxy {\n  /**\n   * Contract constructor.\n   * @param _logic address of the initial implementation.\n   * @param _admin Address of the proxy administrator.\n   * @param _data Data to send as msg.data to the implementation to initialize the proxied contract.\n   * It should include the signature and the parameters of the function to be called, as described in\n   * https://solidity.readthedocs.io/en/v0.4.24/abi-spec.html#function-selector-and-argument-encoding.\n   * This parameter is optional, if no data is given the initialization call to proxied contract will be skipped.\n   */\n  constructor(address _logic, address _admin, bytes memory _data) UpgradeabilityProxy(_logic, _data) public payable {\n    assert(ADMIN_SLOT == bytes32(uint256(keccak256('eip1967.proxy.admin')) - 1));\n    _setAdmin(_admin);\n  }\n}\n\n// File: @openzeppelin/upgrades/contracts/upgradeability/ProxyAdmin.sol\n\npragma solidity ^0.5.0;\n\n\n\n/**\n * @title ProxyAdmin\n * @dev This contract is the admin of a proxy, and is in charge\n * of upgrading it as well as transferring it to another admin.\n */\ncontract ProxyAdmin is OpenZeppelinUpgradesOwnable {\n  \n  /**\n   * @dev Returns the current implementation of a proxy.\n   * This is needed because only the proxy admin can query it.\n   * @return The address of the current implementation of the proxy.\n   */\n  function getProxyImplementation(AdminUpgradeabilityProxy proxy) public view returns (address) {\n    // We need to manually run the static call since the getter cannot be flagged as view\n    // bytes4(keccak256(\"implementation()\")) == 0x5c60da1b\n    (bool success, bytes memory returndata) = address(proxy).staticcall(hex\"5c60da1b\");\n    require(success);\n    return abi.decode(returndata, (address));\n  }\n\n  /**\n   * @dev Returns the admin of a proxy. Only the admin can query it.\n   * @return The address of the current admin of the proxy.\n   */\n  function getProxyAdmin(AdminUpgradeabilityProxy proxy) public view returns (address) {\n    // We need to manually run the static call since the getter cannot be flagged as view\n    // bytes4(keccak256(\"admin()\")) == 0xf851a440\n    (bool success, bytes memory returndata) = address(proxy).staticcall(hex\"f851a440\");\n    require(success);\n    return abi.decode(returndata, (address));\n  }\n\n  /**\n   * @dev Changes the admin of a proxy.\n   * @param proxy Proxy to change admin.\n   * @param newAdmin Address to transfer proxy administration to.\n   */\n  function changeProxyAdmin(AdminUpgradeabilityProxy proxy, address newAdmin) public onlyOwner {\n    proxy.changeAdmin(newAdmin);\n  }\n\n  /**\n   * @dev Upgrades a proxy to the newest implementation of a contract.\n   * @param proxy Proxy to be upgraded.\n   * @param implementation the address of the Implementation.\n   */\n  function upgrade(AdminUpgradeabilityProxy proxy, address implementation) public onlyOwner {\n    proxy.upgradeTo(implementation);\n  }\n\n  /**\n   * @dev Upgrades a proxy to the newest implementation of a contract and forwards a function call to it.\n   * This is useful to initialize the proxied contract.\n   * @param proxy Proxy to be upgraded.\n   * @param implementation Address of the Implementation.\n   * @param data Data to send as msg.data in the low level call.\n   * It should include the signature and the parameters of the function to be called, as described in\n   * https://solidity.readthedocs.io/en/v0.4.24/abi-spec.html#function-selector-and-argument-encoding.\n   */\n  function upgradeAndCall(AdminUpgradeabilityProxy proxy, address implementation, bytes memory data) payable public onlyOwner {\n    proxy.upgradeToAndCall.value(msg.value)(implementation, data);\n  }\n}",
  "sourcePath": "/Users/x3/dev/YFLOCK-v1-core/Proxy/contracts/ProxyAdmin.sol",
  "compiler": {
    "name": "solc",
    "version": "0.5.3+commit.10d17f24.Emscripten.clang"
  },
  "schemaVersion": "3.2.5",
  "updatedAt": "2020-09-26T03:07:01.706Z",
  "devdoc": {
    "details": "This contract is the admin of a proxy, and is in charge of upgrading it as well as transferring it to another admin.",
    "methods": {
      "changeProxyAdmin(address,address)": {
        "details": "Changes the admin of a proxy.",
        "params": {
          "newAdmin": "Address to transfer proxy administration to.",
          "proxy": "Proxy to change admin."
        }
      },
      "getProxyAdmin(address)": {
        "details": "Returns the admin of a proxy. Only the admin can query it.",
        "return": "The address of the current admin of the proxy."
      },
      "getProxyImplementation(address)": {
        "details": "Returns the current implementation of a proxy. This is needed because only the proxy admin can query it.",
        "return": "The address of the current implementation of the proxy."
      },
      "isOwner()": {
        "return": "true if `msg.sender` is the owner of the contract."
      },
      "owner()": {
        "return": "the address of the owner."
      },
      "renounceOwnership()": {
        "details": "Allows the current owner to relinquish control of the contract."
      },
      "transferOwnership(address)": {
        "details": "Allows the current owner to transfer control of the contract to a newOwner.",
        "params": {
          "newOwner": "The address to transfer ownership to."
        }
      },
      "upgrade(address,address)": {
        "details": "Upgrades a proxy to the newest implementation of a contract.",
        "params": {
          "implementation": "the address of the Implementation.",
          "proxy": "Proxy to be upgraded."
        }
      },
      "upgradeAndCall(address,address,bytes)": {
        "details": "Upgrades a proxy to the newest implementation of a contract and forwards a function call to it. This is useful to initialize the proxied contract.",
        "params": {
          "data": "Data to send as msg.data in the low level call. It should include the signature and the parameters of the function to be called, as described in https://solidity.readthedocs.io/en/v0.4.24/abi-spec.html#function-selector-and-argument-encoding.",
          "implementation": "Address of the Implementation.",
          "proxy": "Proxy to be upgraded."
        }
      }
    },
    "title": "ProxyAdmin"
  },
  "userdoc": {
    "methods": {
      "renounceOwnership()": {
        "notice": "Renouncing to ownership will leave the contract without an owner. It will not be possible to call the functions with the `onlyOwner` modifier anymore."
      }
    }
  }
}